{
	"data": {
		"bytecode": {
			"linkReferences": {},
			"object": "60c060405260056080819052640322e322e360dc1b60a0908152620000289160139190620001a1565b503480156200003657600080fd5b5060405162002b7638038062002b76833981016040819052620000599162000264565b62000066600083620000b5565b620000927f71840dc4906352362b0cdaf79870196c8e42acafade72d5d5a6d59291253ceb183620000b5565b601180546001600160a01b0319166001600160a01b0383161790555050620002d8565b620000c18282620000c5565b5050565b60008281526012602090815260408083206001600160a01b038516845290915290205460ff16620000c15760008281526012602090815260408083206001600160a01b03851684529091529020805460ff19166001179055620001276200016b565b6001600160a01b0316816001600160a01b0316837f2f8788117e7eff1d82e926ec794901d17c78024a50270940304540a733656f0d60405160405180910390a45050565b6000601436108015906200018957506011546001600160a01b031633145b156200019c575060131936013560601c90565b503390565b828054620001af906200029b565b90600052602060002090601f016020900481019282620001d357600085556200021e565b82601f10620001ee57805160ff19168380011785556200021e565b828001600101855582156200021e579182015b828111156200021e57825182559160200191906001019062000201565b506200022c92915062000230565b5090565b5b808211156200022c576000815560010162000231565b80516001600160a01b03811681146200025f57600080fd5b919050565b6000806040838503121562000277578182fd5b620002828362000247565b9150620002926020840162000247565b90509250929050565b600181811c90821680620002b057607f821691505b60208210811415620002d257634e487b7160e01b600052602260045260246000fd5b50919050565b61288e80620002e86000396000f3fe608060405234801561001057600080fd5b506004361061027f5760003560e01c8063849b7a591161015c578063a96cfb6b116100ce578063e915970811610087578063e9159708146105f5578063eda1d2121461061a578063ee6bb5181461062d578063eeb4a9c814610640578063f36c8f5c14610653578063fa0f722c1461066857600080fd5b8063a96cfb6b146105a2578063affed0e0146105b5578063bb0c8298146105be578063c1dd76ea146105c7578063d547741f146105da578063dfbc55a3146105ed57600080fd5b806398d41fbd1161012057806398d41fbd146105325780639cea078714610545578063a15b93211461056c578063a217fddf14610574578063a29dc1a01461057c578063a54e3a731461058f57600080fd5b8063849b7a591461049257806385b45f55146104a5578063865e658e146104f957806388f2e95f1461050c57806391d148541461051f57600080fd5b806340f329ca116101f557806360929cff116101b957806360929cff1461040c578063627236441461041f5780636287ffd5146104465780637da0a877146104665780637e8bbbac14610477578063805a0db81461047f57600080fd5b806340f329ca146103b4578063486ff0cd146103bc5780634c555183146103c457806352c0fa26146103d7578063572b6c05146103ea57600080fd5b806324fd94931161024757806324fd94931461032857806325da9b00146103485780632cb62004146103685780632f2ff15d1461037b57806330e3d0a01461038e57806336568abe146103a157600080fd5b806301ffc9a714610284578063190c4269146102ac5780631a7fca86146102c15780631af41fc2146102e4578063248a9ca3146102f7575b600080fd5b6102976102923660046123c1565b61067b565b60405190151581526020015b60405180910390f35b6102bf6102ba36600461231d565b6106b2565b005b6102d46102cf366004612296565b6106e9565b6040516102a394939291906124df565b6102976102f2366004612206565b6107a8565b61031a610305366004612296565b60009081526012602052604090206001015490565b6040519081526020016102a3565b61033b610336366004612296565b61083d565b6040516102a391906125d5565b6103506108d7565b6040516001600160a01b0390911681526020016102a3565b6102bf61037636600461222f565b6108e6565b6102bf6103893660046122ae565b61092c565b61031a61039c3660046123e9565b610954565b6102bf6103af3660046122ae565b610989565b60065461031a565b61033b610a1c565b61031a6103d2366004612284565b610a29565b61031a6103e5366004612296565b610a4e565b6102976103f83660046121ec565b6011546001600160a01b0391821691161490565b61031a61041a366004612296565b610a5b565b61031a7fca77cd8f9856ef5fcd36f6b15bf469fe216c2f9114f60dd031f0a2b97b67aaa981565b610459610454366004612296565b610a68565b6040516102a391906125a7565b6011546001600160a01b0316610350565b600c5461031a565b61031a61048d366004612362565b610ac5565b61031a6104a0366004612296565b610ae4565b6104de6104b33660046121ec565b6001600160a01b03166000908152600460205260409020600181015460038201546005909201549092565b604080519384526020840192909252908201526060016102a3565b61031a610507366004612284565b610af1565b6102bf61051a3660046122d9565b610b18565b61029761052d3660046122ae565b610b9f565b61031a61054036600461222f565b610bca565b61031a7f12fc611a35f9099177ee7d774f3d6415455a6ea95442dc1bf1c538e01f5d61db81565b60095461031a565b61031a600081565b61031a61058a3660046123e9565b610c0c565b6102bf61059d36600461231d565b610c3a565b6102bf6105b0366004612296565b610c67565b61031a60005481565b61031a60015481565b61031a6105d5366004612296565b610da3565b6102bf6105e83660046122ae565b610db0565b600f5461031a565b610608610603366004612296565b610dd8565b6040516102a39695949392919061255e565b6102bf610628366004612296565b610d8f565b61031a61063b366004612284565b610ea5565b6102bf61064e366004612296565b610ec7565b61031a60008051602061272b83398151915281565b61033b610676366004612296565b610f35565b60006001600160e01b03198216637965db0b60e01b14806106ac57506301ffc9a760e01b6001600160e01b03198316145b92915050565b60008051602061272b8339815191526106d2816106cd610f4e565b610f82565b6106e46106dd610f4e565b8484610fe6565b505050565b600a6020526000908152604090208054600182015460028301546003840180546001600160a01b03948516959490931693919261072590612679565b80601f016020809104026020016040519081016040528092919081815260200182805461075190612679565b801561079e5780601f106107735761010080835404028352916020019161079e565b820191906000526020600020905b81548152906001019060200180831161078157829003601f168201915b5050505050905084565b600081815260076020526040812060038101546001600160a01b03858116911614806107e3575060048101546001600160a01b038581169116145b8061081557506108157f12fc611a35f9099177ee7d774f3d6415455a6ea95442dc1bf1c538e01f5d61db61052d610f4e565b80610835575061083560008051602061272b83398151915261052d610f4e565b949350505050565b6010602052600090815260409020805461085690612679565b80601f016020809104026020016040519081016040528092919081815260200182805461088290612679565b80156108cf5780601f106108a4576101008083540402835291602001916108cf565b820191906000526020600020905b8154815290600101906020018083116108b257829003601f168201915b505050505081565b60006108e1610f4e565b905090565b7fca77cd8f9856ef5fcd36f6b15bf469fe216c2f9114f60dd031f0a2b97b67aaa9610913816106cd610f4e565b61092661091e610f4e565b8585856110a4565b50505050565b60008281526012602052604090206001015461094a816106cd610f4e565b6106e48383611196565b600060008051602061272b833981519152610971816106cd610f4e565b61098261097c610f4e565b8461121d565b9392505050565b610991610f4e565b6001600160a01b0316816001600160a01b031614610a0e5760405162461bcd60e51b815260206004820152602f60248201527f416363657373436f6e74726f6c3a2063616e206f6e6c792072656e6f756e636560448201526e103937b632b9903337b91039b2b63360891b60648201526084015b60405180910390fd5b610a1882826112b7565b5050565b6013805461085690612679565b6001600160a01b0382166000908152600460205260408120610835600282018461133c565b60006106ac60088361133c565b60006106ac60058361133c565b6000818152600760205260408120600581018054908390610a8a60018461261f565b81548110610aa857634e487b7160e01b600052603260045260246000fd5b600091825260209091206002909102015460ff1695945050505050565b6000610adb610ad2610f4e565b86868686611374565b95945050505050565b60006106ac600b8361133c565b6001600160a01b03821660009081526004602081905260408220906108359082018461133c565b610b29610b23610f4e565b846107a8565b610b8c5760405162461bcd60e51b815260206004820152602e60248201527f466163746969762e75706461746552656c6174696f6e73686970203a2070657260448201526d1b5a5cdcda5bdb8819195b9a595960921b6064820152608401610a05565b6106e4610b97610f4e565b8484846116b1565b60009182526012602090815260408084206001600160a01b0393909316845291905290205460ff1690565b60007fca77cd8f9856ef5fcd36f6b15bf469fe216c2f9114f60dd031f0a2b97b67aaa9610bf9816106cd610f4e565b610adb610c04610f4e565b86868661181c565b600060008051602061272b833981519152610c29816106cd610f4e565b610982610c34610f4e565b84611937565b60008051602061272b833981519152610c55816106cd610f4e565b6106e4610c60610f4e565b84846119c3565b610c78610c72610f4e565b826107a8565b610cfa5760405162461bcd60e51b815260206004820152604760248201527f466163746969762e64656c65746552656c6174696f6e73686970203a206e6f7460448201527f2061207061727469636970616e742c2061726269747261746f72206f7220676f606482015266766572616e636560c81b608482015260a401610a05565b6000610d0582610a68565b6004811115610d2457634e487b7160e01b600052602160045260246000fd5b14610d8f5760405162461bcd60e51b815260206004820152603560248201527f466163746969762e64656c65746552656c6174696f6e73686970203a2072656c604482015274185d1a5bdb9cda1a5c081a5cc81858d8d95c1d1959605a1b6064820152608401610a05565b610da0610d9a610f4e565b82611a8b565b50565b60006106ac600e8361133c565b600082815260126020526040902060010154610dce816106cd610f4e565b6106e483836112b7565b60076020526000908152604090208054600182018054919291610dfa90612679565b80601f0160208091040260200160405190810160405280929190818152602001828054610e2690612679565b8015610e735780601f10610e4857610100808354040283529160200191610e73565b820191906000526020600020905b815481529060010190602001808311610e5657829003601f168201915b505050600284015460038501546004860154600690960154949591946001600160a01b03918216945091811692501686565b6001600160a01b0382166000908152600460205260408120610835818461133c565b60008051602061272b833981519152610ee2816106cd610f4e565b60018290557f80e9e01c87bcbce1c332b54fae7aeca49677c397c9a61984afd885163d71f4db610f10610f4e565b604080516001600160a01b039092168252602082018590520160405180910390a15050565b600d602052600090815260409020805461085690612679565b600060143610801590610f6b57506011546001600160a01b031633145b15610f7d575060131936013560601c90565b503390565b610f8c8282610b9f565b610a1857610fa4816001600160a01b03166014611c1b565b610faf836020611c1b565b604051602001610fc092919061246a565b60408051601f198184030181529082905262461bcd60e51b8252610a05916004016125d5565b610ff1600b83611dfd565b61103d5760405162461bcd60e51b815260206004820152601860248201527f756e6b6e6f776e2072656c6174696f6e736869705479706500000000000000006044820152606401610a05565b6000828152600d60209081526040909120825161105c9284019061202d565b5081836001600160a01b03167f084121be7eb04075aa4da9fb0baa0025c8b79cae839ec2153e1e054409c4eb7c8360405161109791906125d5565b60405180910390a3505050565b6110af600883611dfd565b6111165760405162461bcd60e51b815260206004820152603260248201527f4661637469697653746f72652e757064617465417474657374696f6e203a20756044820152713735b737bbb71030ba3a32b9ba30ba34b7b760711b6064820152608401610a05565b6000828152600a602090815260409091208251909161113c91600384019185019061202d565b5082846001600160a01b0316866001600160a01b03167f862a60bef5105d3377cafc3c1dd1231ef47d85feb9352f25786c11e03af13c0284600201548660405161118792919061251c565b60405180910390a45050505050565b6111a08282610b9f565b610a185760008281526012602090815260408083206001600160a01b03851684529091529020805460ff191660011790556111d9610f4e565b6001600160a01b0316816001600160a01b0316837f2f8788117e7eff1d82e926ec794901d17c78024a50270940304540a733656f0d60405160405180910390a45050565b6000611227611e59565b905061124f816040518060600160405280602f81526020016126fc602f9139600e9190611eb1565b6000818152601060209081526040909120835161126e9285019061202d565b5080836001600160a01b03167f552f72c71153e22a5f5ca0ca4c94c92ab22effee9a714e7d1157f94e18766560846040516112a991906125d5565b60405180910390a392915050565b6112c18282610b9f565b15610a185760008281526012602090815260408083206001600160a01b03851684529091529020805460ff191690556112f8610f4e565b6001600160a01b0316816001600160a01b0316837ff6391f5c32d9c69d2a47ea670b442974b53935d1edc7fd64eb21e047a839171b60405160405180910390a45050565b600082600101828154811061136157634e487b7160e01b600052603260045260246000fd5b9060005260206000200154905092915050565b6000611381600b86611dfd565b6113e65760405162461bcd60e51b815260206004820152603060248201527f4661637469697653746f72652e63726561746552656c6174696f6e736869702060448201526f0e881d5b9adb9bdddb881d1e5c19525960821b6064820152608401610a05565b60015483116114565760405162461bcd60e51b815260206004820152603660248201527f4661637469697653746f72652e63726561746552656c6174696f6e73686970206044820152753a20616d6f756e742062656c6f77206d696e696d756d60501b6064820152608401610a05565b336001600160a01b03831614156114c45760405162461bcd60e51b815260206004820152602c60248201527f4661637469697653746f72652e63726561746552656c6174696f6e736869703a60448201526b103a37901e9039b2b73232b960a11b6064820152608401610a05565b6114cc611e59565b905060006040518060400160405280600060048111156114fc57634e487b7160e01b600052602160045260246000fd5b81526040805160208181018352600080835293810191909152858352600781528183206001600160a01b03808d168086526004808552858720928b168088529587208e855560028086018e90556003860180546001600160a01b03199081169095179055828601805490941690971790925560058401805460018181018355918952959097208851959096029095018054979850929691959094889492849260ff199091169184908111156115c157634e487b7160e01b600052602160045260246000fd5b021790555060208281015180516115de926001850192019061202d565b505050611607856040518060600160405280602b815260200161282e602b913960059190611eb1565b61162f856040518060600160405280602a815260200161274b602a9139600284019190611eb1565b611654856040518060600160405280602c8152602001612775602c9139849190611eb1565b84866001600160a01b03168b6001600160a01b03167fbcc29e0ad7824522560710a30f8ddd060d3ad441dd28a900808bb3b4c3b2e8888c8c8c60405161169c93929190612535565b60405180910390a45050505095945050505050565b60008381526007602052604090206116ca600585611dfd565b61172b5760405162461bcd60e51b815260206004820152602c60248201527f4661637469697653746f72652e61636365707452656c6174696f6e736869702060448201526b0e881d5b9adb9bdddb881a5960a21b6064820152608401610a05565b6000604051806040016040528085600481111561175857634e487b7160e01b600052602160045260246000fd5b81526020908101859052600584018054600181810183556000928352929091208351600290920201805493945084939092839160ff1916908360048111156117b057634e487b7160e01b600052602160045260246000fd5b021790555060208281015180516117cd926001850192019061202d565b50505084866001600160a01b03167f65a96abf7a8464886adb3c10ad9c2eac2c28cda0e5a5d06a4e43e82ba1d904b5868660405161180c9291906125b5565b60405180910390a3505050505050565b6000611826611e59565b6000818152600a602090815260408083206001600160a01b03808a1680865260048552929094208154948b166001600160a01b031995861617825560018201805490951690921790935560028301879055855193945091926118909160038501919087019061202d565b506118b9836040518060600160405280603281526020016127a160329139600484019190611eb1565b6118df836040518060600160405280602b81526020016127d3602b913960089190611eb1565b82866001600160a01b0316886001600160a01b03167f0f1d05e62d3c2e358bd9b4b996cc1c77348f8bdc6a0fb2a44acdda8aa10a7c72888860405161192592919061251c565b60405180910390a45050949350505050565b6000611941611e59565b9050611969816040518060600160405280603081526020016127fe60309139600b9190611eb1565b6000818152600d6020908152604090912083516119889285019061202d565b5080836001600160a01b03167f302043e9714b4fffdb7c6b5b0bd0a7ce1ed44e23090c5b141d07a0b7db226e63846040516112a991906125d5565b6119ce600e83611dfd565b611a315760405162461bcd60e51b815260206004820152602e60248201527f4661637469767653746f72652e5f757064617465417474657374696f6e54797060448201526d19480e881d5b9adb9bdddb881a5960921b6064820152608401610a05565b60008281526010602090815260409091208251611a509284019061202d565b5081836001600160a01b03167f4dbbe29cd02f27130f9de96fa91ea03748f6c81a9b30beb32be958364bf3d39a8360405161109791906125d5565b600081815260076020818152604080842060038101546001600160a01b03908116865260048085528387209083015490911686529185208686529390925283825590929091908390611ae060018301826120b1565b6000600283018190556003830180546001600160a01b03199081169091556004840180549091169055611b179060058401906120eb565b5060060180546001600160a01b03191690556040805180820190915260178152761d5b9adb9bdddb881c995b185d1a5bdb9cda1a5c081a59604a1b6020820152611b65906005908690611f06565b6040805180820190915260178152761d5b9adb9bdddb881c995b185d1a5bdb9cda1a5c081a59604a1b6020820152611ba09083908690611f06565b6040805180820190915260178152761d5b9adb9bdddb881c995b185d1a5bdb9cda1a5c081a59604a1b6020820152611bde9060028301908690611f06565b60405184906001600160a01b038716907f28921f27194c5ae8f1c2c4010aad2d87af120b1b0e8e743eb7a3d0810b4b214190600090a35050505050565b60606000611c2a836002612600565b611c359060026125e8565b67ffffffffffffffff811115611c5b57634e487b7160e01b600052604160045260246000fd5b6040519080825280601f01601f191660200182016040528015611c85576020820181803683370190505b509050600360fc1b81600081518110611cae57634e487b7160e01b600052603260045260246000fd5b60200101906001600160f81b031916908160001a905350600f60fb1b81600181518110611ceb57634e487b7160e01b600052603260045260246000fd5b60200101906001600160f81b031916908160001a9053506000611d0f846002612600565b611d1a9060016125e8565b90505b6001811115611dae576f181899199a1a9b1b9c1cb0b131b232b360811b85600f1660108110611d5c57634e487b7160e01b600052603260045260246000fd5b1a60f81b828281518110611d8057634e487b7160e01b600052603260045260246000fd5b60200101906001600160f81b031916908160001a90535060049490941c93611da781612662565b9050611d1d565b5083156109825760405162461bcd60e51b815260206004820181905260248201527f537472696e67733a20686578206c656e67746820696e73756666696369656e746044820152606401610a05565b6001820154600090611e11575060006106ac565b6000828152602084905260409020546001840180548492908110611e4557634e487b7160e01b600052603260045260246000fd5b906000526020600020015414905092915050565b600080548180611e68836126b4565b90915550506000546040516bffffffffffffffffffffffff193060601b166020820152603481019190915260540160405160208183030381529060405280519060200120905090565b611ebb8383611dfd565b158190611edb5760405162461bcd60e51b8152600401610a0591906125d5565b5050600180830180546000848152602095865260408120829055928101825590825292902090910155565b611f108383611dfd565b8190611f2f5760405162461bcd60e51b8152600401610a0591906125d5565b5060006001611f3f856001015490565b611f49919061261f565b600084815260208690526040902054909150808214611fe0576000856001018381548110611f8757634e487b7160e01b600052603260045260246000fd5b90600052602060002001549050818660000160008381526020019081526020016000208190555080866001018381548110611fd257634e487b7160e01b600052603260045260246000fd5b600091825260209091200155505b6000848152602086905260408120556001850180548061201057634e487b7160e01b600052603160045260246000fd5b600190038181906000526020600020016000905590555050505050565b82805461203990612679565b90600052602060002090601f01602090048101928261205b57600085556120a1565b82601f1061207457805160ff19168380011785556120a1565b828001600101855582156120a1579182015b828111156120a1578251825591602001919060010190612086565b506120ad92915061210c565b5090565b5080546120bd90612679565b6000825580601f106120cd575050565b601f016020900490600052602060002090810190610da0919061210c565b5080546000825560020290600052602060002090810190610da09190612121565b5b808211156120ad576000815560010161210d565b808211156120ad57805460ff19168155600061214060018301826120b1565b50600201612121565b80356001600160a01b038116811461216057600080fd5b919050565b600082601f830112612175578081fd5b813567ffffffffffffffff80821115612190576121906126e5565b604051601f8301601f19908116603f011681019082821181831017156121b8576121b86126e5565b816040528381528660208588010111156121d0578485fd5b8360208701602083013792830160200193909352509392505050565b6000602082840312156121fd578081fd5b61098282612149565b60008060408385031215612218578081fd5b61222183612149565b946020939093013593505050565b600080600060608486031215612243578081fd5b61224c84612149565b925060208401359150604084013567ffffffffffffffff81111561226e578182fd5b61227a86828701612165565b9150509250925092565b60008060408385031215612218578182fd5b6000602082840312156122a7578081fd5b5035919050565b600080604083850312156122c0578182fd5b823591506122d060208401612149565b90509250929050565b6000806000606084860312156122ed578283fd5b83359250602084013560058110612302578283fd5b9150604084013567ffffffffffffffff81111561226e578182fd5b6000806040838503121561232f578182fd5b82359150602083013567ffffffffffffffff81111561234c578182fd5b61235885828601612165565b9150509250929050565b60008060008060808587031215612377578081fd5b84359350602085013567ffffffffffffffff811115612394578182fd5b6123a087828801612165565b935050604085013591506123b660608601612149565b905092959194509250565b6000602082840312156123d2578081fd5b81356001600160e01b031981168114610982578182fd5b6000602082840312156123fa578081fd5b813567ffffffffffffffff811115612410578182fd5b61083584828501612165565b6005811061243a57634e487b7160e01b600052602160045260246000fd5b9052565b60008151808452612456816020860160208601612636565b601f01601f19169290920160200192915050565b7f416363657373436f6e74726f6c3a206163636f756e74200000000000000000008152600083516124a2816017850160208801612636565b7001034b99036b4b9b9b4b733903937b6329607d1b60179184019182015283516124d3816028840160208801612636565b01602801949350505050565b6001600160a01b03858116825284166020820152604081018390526080606082018190526000906125129083018461243e565b9695505050505050565b828152604060208201526000610835604083018461243e565b83815260606020820152600061254e606083018561243e565b9050826040830152949350505050565b86815260c06020820152600061257760c083018861243e565b6040830196909652506001600160a01b039384166060820152918316608083015290911660a09091015292915050565b602081016106ac828461241c565b6125bf818461241c565b604060208201526000610835604083018461243e565b602081526000610982602083018461243e565b600082198211156125fb576125fb6126cf565b500190565b600081600019048311821515161561261a5761261a6126cf565b500290565b600082821015612631576126316126cf565b500390565b60005b83811015612651578181015183820152602001612639565b838111156109265750506000910152565b600081612671576126716126cf565b506000190190565b600181811c9082168061268d57607f821691505b602082108114156126ae57634e487b7160e01b600052602260045260246000fd5b50919050565b60006000198214156126c8576126c86126cf565b5060010190565b634e487b7160e01b600052601160045260246000fd5b634e487b7160e01b600052604160045260246000fdfe4661637469697653746f72652e5f6372656174654174746573746174696f6e54797065203a2069642065786973747371840dc4906352362b0cdaf79870196c8e42acafade72d5d5a6d59291253ceb14661637469697653746f72652e63726561746552656c6174696f6e73686970203a203530302028746f294661637469697653746f72652e63726561746552656c6174696f6e73686970203a20353030202866726f6d294661637469697653746f72652e5f6372656174654174746573746174696f6e203a20696420657869737473202875736572294661637469697653746f72652e5f6372656174654174746573746174696f6e203a206964206578697374734661637469697653746f72652e5f63726561746552656c6174696f6e7368697054797065203a206964206578697374734661637469697653746f72652e63726561746552656c6174696f6e73686970203a20696420657869737473a2646970667358221220470081e574378121f13606aae30f7b7c16bdf2cf75ff28c197861f98b5bcf92464736f6c63430008040033",
			"opcodes": "PUSH1 0xC0 PUSH1 0x40 MSTORE PUSH1 0x5 PUSH1 0x80 DUP2 SWAP1 MSTORE PUSH5 0x322E322E3 PUSH1 0xDC SHL PUSH1 0xA0 SWAP1 DUP2 MSTORE PUSH3 0x28 SWAP2 PUSH1 0x13 SWAP2 SWAP1 PUSH3 0x1A1 JUMP JUMPDEST POP CALLVALUE DUP1 ISZERO PUSH3 0x36 JUMPI PUSH1 0x0 DUP1 REVERT JUMPDEST POP PUSH1 0x40 MLOAD PUSH3 0x2B76 CODESIZE SUB DUP1 PUSH3 0x2B76 DUP4 CODECOPY DUP2 ADD PUSH1 0x40 DUP2 SWAP1 MSTORE PUSH3 0x59 SWAP2 PUSH3 0x264 JUMP JUMPDEST PUSH3 0x66 PUSH1 0x0 DUP4 PUSH3 0xB5 JUMP JUMPDEST PUSH3 0x92 PUSH32 0x71840DC4906352362B0CDAF79870196C8E42ACAFADE72D5D5A6D59291253CEB1 DUP4 PUSH3 0xB5 JUMP JUMPDEST PUSH1 0x11 DUP1 SLOAD PUSH1 0x1 PUSH1 0x1 PUSH1 0xA0 SHL SUB NOT AND PUSH1 0x1 PUSH1 0x1 PUSH1 0xA0 SHL SUB DUP4 AND OR SWAP1 SSTORE POP POP PUSH3 0x2D8 JUMP JUMPDEST PUSH3 0xC1 DUP3 DUP3 PUSH3 0xC5 JUMP JUMPDEST POP POP JUMP JUMPDEST PUSH1 0x0 DUP3 DUP2 MSTORE PUSH1 0x12 PUSH1 0x20 SWAP1 DUP2 MSTORE PUSH1 0x40 DUP1 DUP4 KECCAK256 PUSH1 0x1 PUSH1 0x1 PUSH1 0xA0 SHL SUB DUP6 AND DUP5 MSTORE SWAP1 SWAP2 MSTORE SWAP1 KECCAK256 SLOAD PUSH1 0xFF AND PUSH3 0xC1 JUMPI PUSH1 0x0 DUP3 DUP2 MSTORE PUSH1 0x12 PUSH1 0x20 SWAP1 DUP2 MSTORE PUSH1 0x40 DUP1 DUP4 KECCAK256 PUSH1 0x1 PUSH1 0x1 PUSH1 0xA0 SHL SUB DUP6 AND DUP5 MSTORE SWAP1 SWAP2 MSTORE SWAP1 KECCAK256 DUP1 SLOAD PUSH1 0xFF NOT AND PUSH1 0x1 OR SWAP1 SSTORE PUSH3 0x127 PUSH3 0x16B JUMP JUMPDEST PUSH1 0x1 PUSH1 0x1 PUSH1 0xA0 SHL SUB AND DUP2 PUSH1 0x1 PUSH1 0x1 PUSH1 0xA0 SHL SUB AND DUP4 PUSH32 0x2F8788117E7EFF1D82E926EC794901D17C78024A50270940304540A733656F0D PUSH1 0x40 MLOAD PUSH1 0x40 MLOAD DUP1 SWAP2 SUB SWAP1 LOG4 POP POP JUMP JUMPDEST PUSH1 0x0 PUSH1 0x14 CALLDATASIZE LT DUP1 ISZERO SWAP1 PUSH3 0x189 JUMPI POP PUSH1 0x11 SLOAD PUSH1 0x1 PUSH1 0x1 PUSH1 0xA0 SHL SUB AND CALLER EQ JUMPDEST ISZERO PUSH3 0x19C JUMPI POP PUSH1 0x13 NOT CALLDATASIZE ADD CALLDATALOAD PUSH1 0x60 SHR SWAP1 JUMP JUMPDEST POP CALLER SWAP1 JUMP JUMPDEST DUP3 DUP1 SLOAD PUSH3 0x1AF SWAP1 PUSH3 0x29B JUMP JUMPDEST SWAP1 PUSH1 0x0 MSTORE PUSH1 0x20 PUSH1 0x0 KECCAK256 SWAP1 PUSH1 0x1F ADD PUSH1 0x20 SWAP1 DIV DUP2 ADD SWAP3 DUP3 PUSH3 0x1D3 JUMPI PUSH1 0x0 DUP6 SSTORE PUSH3 0x21E JUMP JUMPDEST DUP3 PUSH1 0x1F LT PUSH3 0x1EE JUMPI DUP1 MLOAD PUSH1 0xFF NOT AND DUP4 DUP1 ADD OR DUP6 SSTORE PUSH3 0x21E JUMP JUMPDEST DUP3 DUP1 ADD PUSH1 0x1 ADD DUP6 SSTORE DUP3 ISZERO PUSH3 0x21E JUMPI SWAP2 DUP3 ADD JUMPDEST DUP3 DUP2 GT ISZERO PUSH3 0x21E JUMPI DUP3 MLOAD DUP3 SSTORE SWAP2 PUSH1 0x20 ADD SWAP2 SWAP1 PUSH1 0x1 ADD SWAP1 PUSH3 0x201 JUMP JUMPDEST POP PUSH3 0x22C SWAP3 SWAP2 POP PUSH3 0x230 JUMP JUMPDEST POP SWAP1 JUMP JUMPDEST JUMPDEST DUP1 DUP3 GT ISZERO PUSH3 0x22C JUMPI PUSH1 0x0 DUP2 SSTORE PUSH1 0x1 ADD PUSH3 0x231 JUMP JUMPDEST DUP1 MLOAD PUSH1 0x1 PUSH1 0x1 PUSH1 0xA0 SHL SUB DUP2 AND DUP2 EQ PUSH3 0x25F JUMPI PUSH1 0x0 DUP1 REVERT JUMPDEST SWAP2 SWAP1 POP JUMP JUMPDEST PUSH1 0x0 DUP1 PUSH1 0x40 DUP4 DUP6 SUB SLT ISZERO PUSH3 0x277 JUMPI DUP2 DUP3 REVERT JUMPDEST PUSH3 0x282 DUP4 PUSH3 0x247 JUMP JUMPDEST SWAP2 POP PUSH3 0x292 PUSH1 0x20 DUP5 ADD PUSH3 0x247 JUMP JUMPDEST SWAP1 POP SWAP3 POP SWAP3 SWAP1 POP JUMP JUMPDEST PUSH1 0x1 DUP2 DUP2 SHR SWAP1 DUP3 AND DUP1 PUSH3 0x2B0 JUMPI PUSH1 0x7F DUP3 AND SWAP2 POP JUMPDEST PUSH1 0x20 DUP3 LT DUP2 EQ ISZERO PUSH3 0x2D2 JUMPI PUSH4 0x4E487B71 PUSH1 0xE0 SHL PUSH1 0x0 MSTORE PUSH1 0x22 PUSH1 0x4 MSTORE PUSH1 0x24 PUSH1 0x0 REVERT JUMPDEST POP SWAP2 SWAP1 POP JUMP JUMPDEST PUSH2 0x288E DUP1 PUSH3 0x2E8 PUSH1 0x0 CODECOPY PUSH1 0x0 RETURN INVALID PUSH1 0x80 PUSH1 0x40 MSTORE CALLVALUE DUP1 ISZERO PUSH2 0x10 JUMPI PUSH1 0x0 DUP1 REVERT JUMPDEST POP PUSH1 0x4 CALLDATASIZE LT PUSH2 0x27F JUMPI PUSH1 0x0 CALLDATALOAD PUSH1 0xE0 SHR DUP1 PUSH4 0x849B7A59 GT PUSH2 0x15C JUMPI DUP1 PUSH4 0xA96CFB6B GT PUSH2 0xCE JUMPI DUP1 PUSH4 0xE9159708 GT PUSH2 0x87 JUMPI DUP1 PUSH4 0xE9159708 EQ PUSH2 0x5F5 JUMPI DUP1 PUSH4 0xEDA1D212 EQ PUSH2 0x61A JUMPI DUP1 PUSH4 0xEE6BB518 EQ PUSH2 0x62D JUMPI DUP1 PUSH4 0xEEB4A9C8 EQ PUSH2 0x640 JUMPI DUP1 PUSH4 0xF36C8F5C EQ PUSH2 0x653 JUMPI DUP1 PUSH4 0xFA0F722C EQ PUSH2 0x668 JUMPI PUSH1 0x0 DUP1 REVERT JUMPDEST DUP1 PUSH4 0xA96CFB6B EQ PUSH2 0x5A2 JUMPI DUP1 PUSH4 0xAFFED0E0 EQ PUSH2 0x5B5 JUMPI DUP1 PUSH4 0xBB0C8298 EQ PUSH2 0x5BE JUMPI DUP1 PUSH4 0xC1DD76EA EQ PUSH2 0x5C7 JUMPI DUP1 PUSH4 0xD547741F EQ PUSH2 0x5DA JUMPI DUP1 PUSH4 0xDFBC55A3 EQ PUSH2 0x5ED JUMPI PUSH1 0x0 DUP1 REVERT JUMPDEST DUP1 PUSH4 0x98D41FBD GT PUSH2 0x120 JUMPI DUP1 PUSH4 0x98D41FBD EQ PUSH2 0x532 JUMPI DUP1 PUSH4 0x9CEA0787 EQ PUSH2 0x545 JUMPI DUP1 PUSH4 0xA15B9321 EQ PUSH2 0x56C JUMPI DUP1 PUSH4 0xA217FDDF EQ PUSH2 0x574 JUMPI DUP1 PUSH4 0xA29DC1A0 EQ PUSH2 0x57C JUMPI DUP1 PUSH4 0xA54E3A73 EQ PUSH2 0x58F JUMPI PUSH1 0x0 DUP1 REVERT JUMPDEST DUP1 PUSH4 0x849B7A59 EQ PUSH2 0x492 JUMPI DUP1 PUSH4 0x85B45F55 EQ PUSH2 0x4A5 JUMPI DUP1 PUSH4 0x865E658E EQ PUSH2 0x4F9 JUMPI DUP1 PUSH4 0x88F2E95F EQ PUSH2 0x50C JUMPI DUP1 PUSH4 0x91D14854 EQ PUSH2 0x51F JUMPI PUSH1 0x0 DUP1 REVERT JUMPDEST DUP1 PUSH4 0x40F329CA GT PUSH2 0x1F5 JUMPI DUP1 PUSH4 0x60929CFF GT PUSH2 0x1B9 JUMPI DUP1 PUSH4 0x60929CFF EQ PUSH2 0x40C JUMPI DUP1 PUSH4 0x62723644 EQ PUSH2 0x41F JUMPI DUP1 PUSH4 0x6287FFD5 EQ PUSH2 0x446 JUMPI DUP1 PUSH4 0x7DA0A877 EQ PUSH2 0x466 JUMPI DUP1 PUSH4 0x7E8BBBAC EQ PUSH2 0x477 JUMPI DUP1 PUSH4 0x805A0DB8 EQ PUSH2 0x47F JUMPI PUSH1 0x0 DUP1 REVERT JUMPDEST DUP1 PUSH4 0x40F329CA EQ PUSH2 0x3B4 JUMPI DUP1 PUSH4 0x486FF0CD EQ PUSH2 0x3BC JUMPI DUP1 PUSH4 0x4C555183 EQ PUSH2 0x3C4 JUMPI DUP1 PUSH4 0x52C0FA26 EQ PUSH2 0x3D7 JUMPI DUP1 PUSH4 0x572B6C05 EQ PUSH2 0x3EA JUMPI PUSH1 0x0 DUP1 REVERT JUMPDEST DUP1 PUSH4 0x24FD9493 GT PUSH2 0x247 JUMPI DUP1 PUSH4 0x24FD9493 EQ PUSH2 0x328 JUMPI DUP1 PUSH4 0x25DA9B00 EQ PUSH2 0x348 JUMPI DUP1 PUSH4 0x2CB62004 EQ PUSH2 0x368 JUMPI DUP1 PUSH4 0x2F2FF15D EQ PUSH2 0x37B JUMPI DUP1 PUSH4 0x30E3D0A0 EQ PUSH2 0x38E JUMPI DUP1 PUSH4 0x36568ABE EQ PUSH2 0x3A1 JUMPI PUSH1 0x0 DUP1 REVERT JUMPDEST DUP1 PUSH4 0x1FFC9A7 EQ PUSH2 0x284 JUMPI DUP1 PUSH4 0x190C4269 EQ PUSH2 0x2AC JUMPI DUP1 PUSH4 0x1A7FCA86 EQ PUSH2 0x2C1 JUMPI DUP1 PUSH4 0x1AF41FC2 EQ PUSH2 0x2E4 JUMPI DUP1 PUSH4 0x248A9CA3 EQ PUSH2 0x2F7 JUMPI JUMPDEST PUSH1 0x0 DUP1 REVERT JUMPDEST PUSH2 0x297 PUSH2 0x292 CALLDATASIZE PUSH1 0x4 PUSH2 0x23C1 JUMP JUMPDEST PUSH2 0x67B JUMP JUMPDEST PUSH1 0x40 MLOAD SWAP1 ISZERO ISZERO DUP2 MSTORE PUSH1 0x20 ADD JUMPDEST PUSH1 0x40 MLOAD DUP1 SWAP2 SUB SWAP1 RETURN JUMPDEST PUSH2 0x2BF PUSH2 0x2BA CALLDATASIZE PUSH1 0x4 PUSH2 0x231D JUMP JUMPDEST PUSH2 0x6B2 JUMP JUMPDEST STOP JUMPDEST PUSH2 0x2D4 PUSH2 0x2CF CALLDATASIZE PUSH1 0x4 PUSH2 0x2296 JUMP JUMPDEST PUSH2 0x6E9 JUMP JUMPDEST PUSH1 0x40 MLOAD PUSH2 0x2A3 SWAP5 SWAP4 SWAP3 SWAP2 SWAP1 PUSH2 0x24DF JUMP JUMPDEST PUSH2 0x297 PUSH2 0x2F2 CALLDATASIZE PUSH1 0x4 PUSH2 0x2206 JUMP JUMPDEST PUSH2 0x7A8 JUMP JUMPDEST PUSH2 0x31A PUSH2 0x305 CALLDATASIZE PUSH1 0x4 PUSH2 0x2296 JUMP JUMPDEST PUSH1 0x0 SWAP1 DUP2 MSTORE PUSH1 0x12 PUSH1 0x20 MSTORE PUSH1 0x40 SWAP1 KECCAK256 PUSH1 0x1 ADD SLOAD SWAP1 JUMP JUMPDEST PUSH1 0x40 MLOAD SWAP1 DUP2 MSTORE PUSH1 0x20 ADD PUSH2 0x2A3 JUMP JUMPDEST PUSH2 0x33B PUSH2 0x336 CALLDATASIZE PUSH1 0x4 PUSH2 0x2296 JUMP JUMPDEST PUSH2 0x83D JUMP JUMPDEST PUSH1 0x40 MLOAD PUSH2 0x2A3 SWAP2 SWAP1 PUSH2 0x25D5 JUMP JUMPDEST PUSH2 0x350 PUSH2 0x8D7 JUMP JUMPDEST PUSH1 0x40 MLOAD PUSH1 0x1 PUSH1 0x1 PUSH1 0xA0 SHL SUB SWAP1 SWAP2 AND DUP2 MSTORE PUSH1 0x20 ADD PUSH2 0x2A3 JUMP JUMPDEST PUSH2 0x2BF PUSH2 0x376 CALLDATASIZE PUSH1 0x4 PUSH2 0x222F JUMP JUMPDEST PUSH2 0x8E6 JUMP JUMPDEST PUSH2 0x2BF PUSH2 0x389 CALLDATASIZE PUSH1 0x4 PUSH2 0x22AE JUMP JUMPDEST PUSH2 0x92C JUMP JUMPDEST PUSH2 0x31A PUSH2 0x39C CALLDATASIZE PUSH1 0x4 PUSH2 0x23E9 JUMP JUMPDEST PUSH2 0x954 JUMP JUMPDEST PUSH2 0x2BF PUSH2 0x3AF CALLDATASIZE PUSH1 0x4 PUSH2 0x22AE JUMP JUMPDEST PUSH2 0x989 JUMP JUMPDEST PUSH1 0x6 SLOAD PUSH2 0x31A JUMP JUMPDEST PUSH2 0x33B PUSH2 0xA1C JUMP JUMPDEST PUSH2 0x31A PUSH2 0x3D2 CALLDATASIZE PUSH1 0x4 PUSH2 0x2284 JUMP JUMPDEST PUSH2 0xA29 JUMP JUMPDEST PUSH2 0x31A PUSH2 0x3E5 CALLDATASIZE PUSH1 0x4 PUSH2 0x2296 JUMP JUMPDEST PUSH2 0xA4E JUMP JUMPDEST PUSH2 0x297 PUSH2 0x3F8 CALLDATASIZE PUSH1 0x4 PUSH2 0x21EC JUMP JUMPDEST PUSH1 0x11 SLOAD PUSH1 0x1 PUSH1 0x1 PUSH1 0xA0 SHL SUB SWAP2 DUP3 AND SWAP2 AND EQ SWAP1 JUMP JUMPDEST PUSH2 0x31A PUSH2 0x41A CALLDATASIZE PUSH1 0x4 PUSH2 0x2296 JUMP JUMPDEST PUSH2 0xA5B JUMP JUMPDEST PUSH2 0x31A PUSH32 0xCA77CD8F9856EF5FCD36F6B15BF469FE216C2F9114F60DD031F0A2B97B67AAA9 DUP2 JUMP JUMPDEST PUSH2 0x459 PUSH2 0x454 CALLDATASIZE PUSH1 0x4 PUSH2 0x2296 JUMP JUMPDEST PUSH2 0xA68 JUMP JUMPDEST PUSH1 0x40 MLOAD PUSH2 0x2A3 SWAP2 SWAP1 PUSH2 0x25A7 JUMP JUMPDEST PUSH1 0x11 SLOAD PUSH1 0x1 PUSH1 0x1 PUSH1 0xA0 SHL SUB AND PUSH2 0x350 JUMP JUMPDEST PUSH1 0xC SLOAD PUSH2 0x31A JUMP JUMPDEST PUSH2 0x31A PUSH2 0x48D CALLDATASIZE PUSH1 0x4 PUSH2 0x2362 JUMP JUMPDEST PUSH2 0xAC5 JUMP JUMPDEST PUSH2 0x31A PUSH2 0x4A0 CALLDATASIZE PUSH1 0x4 PUSH2 0x2296 JUMP JUMPDEST PUSH2 0xAE4 JUMP JUMPDEST PUSH2 0x4DE PUSH2 0x4B3 CALLDATASIZE PUSH1 0x4 PUSH2 0x21EC JUMP JUMPDEST PUSH1 0x1 PUSH1 0x1 PUSH1 0xA0 SHL SUB AND PUSH1 0x0 SWAP1 DUP2 MSTORE PUSH1 0x4 PUSH1 0x20 MSTORE PUSH1 0x40 SWAP1 KECCAK256 PUSH1 0x1 DUP2 ADD SLOAD PUSH1 0x3 DUP3 ADD SLOAD PUSH1 0x5 SWAP1 SWAP3 ADD SLOAD SWAP1 SWAP3 JUMP JUMPDEST PUSH1 0x40 DUP1 MLOAD SWAP4 DUP5 MSTORE PUSH1 0x20 DUP5 ADD SWAP3 SWAP1 SWAP3 MSTORE SWAP1 DUP3 ADD MSTORE PUSH1 0x60 ADD PUSH2 0x2A3 JUMP JUMPDEST PUSH2 0x31A PUSH2 0x507 CALLDATASIZE PUSH1 0x4 PUSH2 0x2284 JUMP JUMPDEST PUSH2 0xAF1 JUMP JUMPDEST PUSH2 0x2BF PUSH2 0x51A CALLDATASIZE PUSH1 0x4 PUSH2 0x22D9 JUMP JUMPDEST PUSH2 0xB18 JUMP JUMPDEST PUSH2 0x297 PUSH2 0x52D CALLDATASIZE PUSH1 0x4 PUSH2 0x22AE JUMP JUMPDEST PUSH2 0xB9F JUMP JUMPDEST PUSH2 0x31A PUSH2 0x540 CALLDATASIZE PUSH1 0x4 PUSH2 0x222F JUMP JUMPDEST PUSH2 0xBCA JUMP JUMPDEST PUSH2 0x31A PUSH32 0x12FC611A35F9099177EE7D774F3D6415455A6EA95442DC1BF1C538E01F5D61DB DUP2 JUMP JUMPDEST PUSH1 0x9 SLOAD PUSH2 0x31A JUMP JUMPDEST PUSH2 0x31A PUSH1 0x0 DUP2 JUMP JUMPDEST PUSH2 0x31A PUSH2 0x58A CALLDATASIZE PUSH1 0x4 PUSH2 0x23E9 JUMP JUMPDEST PUSH2 0xC0C JUMP JUMPDEST PUSH2 0x2BF PUSH2 0x59D CALLDATASIZE PUSH1 0x4 PUSH2 0x231D JUMP JUMPDEST PUSH2 0xC3A JUMP JUMPDEST PUSH2 0x2BF PUSH2 0x5B0 CALLDATASIZE PUSH1 0x4 PUSH2 0x2296 JUMP JUMPDEST PUSH2 0xC67 JUMP JUMPDEST PUSH2 0x31A PUSH1 0x0 SLOAD DUP2 JUMP JUMPDEST PUSH2 0x31A PUSH1 0x1 SLOAD DUP2 JUMP JUMPDEST PUSH2 0x31A PUSH2 0x5D5 CALLDATASIZE PUSH1 0x4 PUSH2 0x2296 JUMP JUMPDEST PUSH2 0xDA3 JUMP JUMPDEST PUSH2 0x2BF PUSH2 0x5E8 CALLDATASIZE PUSH1 0x4 PUSH2 0x22AE JUMP JUMPDEST PUSH2 0xDB0 JUMP JUMPDEST PUSH1 0xF SLOAD PUSH2 0x31A JUMP JUMPDEST PUSH2 0x608 PUSH2 0x603 CALLDATASIZE PUSH1 0x4 PUSH2 0x2296 JUMP JUMPDEST PUSH2 0xDD8 JUMP JUMPDEST PUSH1 0x40 MLOAD PUSH2 0x2A3 SWAP7 SWAP6 SWAP5 SWAP4 SWAP3 SWAP2 SWAP1 PUSH2 0x255E JUMP JUMPDEST PUSH2 0x2BF PUSH2 0x628 CALLDATASIZE PUSH1 0x4 PUSH2 0x2296 JUMP JUMPDEST PUSH2 0xD8F JUMP JUMPDEST PUSH2 0x31A PUSH2 0x63B CALLDATASIZE PUSH1 0x4 PUSH2 0x2284 JUMP JUMPDEST PUSH2 0xEA5 JUMP JUMPDEST PUSH2 0x2BF PUSH2 0x64E CALLDATASIZE PUSH1 0x4 PUSH2 0x2296 JUMP JUMPDEST PUSH2 0xEC7 JUMP JUMPDEST PUSH2 0x31A PUSH1 0x0 DUP1 MLOAD PUSH1 0x20 PUSH2 0x272B DUP4 CODECOPY DUP2 MLOAD SWAP2 MSTORE DUP2 JUMP JUMPDEST PUSH2 0x33B PUSH2 0x676 CALLDATASIZE PUSH1 0x4 PUSH2 0x2296 JUMP JUMPDEST PUSH2 0xF35 JUMP JUMPDEST PUSH1 0x0 PUSH1 0x1 PUSH1 0x1 PUSH1 0xE0 SHL SUB NOT DUP3 AND PUSH4 0x7965DB0B PUSH1 0xE0 SHL EQ DUP1 PUSH2 0x6AC JUMPI POP PUSH4 0x1FFC9A7 PUSH1 0xE0 SHL PUSH1 0x1 PUSH1 0x1 PUSH1 0xE0 SHL SUB NOT DUP4 AND EQ JUMPDEST SWAP3 SWAP2 POP POP JUMP JUMPDEST PUSH1 0x0 DUP1 MLOAD PUSH1 0x20 PUSH2 0x272B DUP4 CODECOPY DUP2 MLOAD SWAP2 MSTORE PUSH2 0x6D2 DUP2 PUSH2 0x6CD PUSH2 0xF4E JUMP JUMPDEST PUSH2 0xF82 JUMP JUMPDEST PUSH2 0x6E4 PUSH2 0x6DD PUSH2 0xF4E JUMP JUMPDEST DUP5 DUP5 PUSH2 0xFE6 JUMP JUMPDEST POP POP POP JUMP JUMPDEST PUSH1 0xA PUSH1 0x20 MSTORE PUSH1 0x0 SWAP1 DUP2 MSTORE PUSH1 0x40 SWAP1 KECCAK256 DUP1 SLOAD PUSH1 0x1 DUP3 ADD SLOAD PUSH1 0x2 DUP4 ADD SLOAD PUSH1 0x3 DUP5 ADD DUP1 SLOAD PUSH1 0x1 PUSH1 0x1 PUSH1 0xA0 SHL SUB SWAP5 DUP6 AND SWAP6 SWAP5 SWAP1 SWAP4 AND SWAP4 SWAP2 SWAP3 PUSH2 0x725 SWAP1 PUSH2 0x2679 JUMP JUMPDEST DUP1 PUSH1 0x1F ADD PUSH1 0x20 DUP1 SWAP2 DIV MUL PUSH1 0x20 ADD PUSH1 0x40 MLOAD SWAP1 DUP2 ADD PUSH1 0x40 MSTORE DUP1 SWAP3 SWAP2 SWAP1 DUP2 DUP2 MSTORE PUSH1 0x20 ADD DUP3 DUP1 SLOAD PUSH2 0x751 SWAP1 PUSH2 0x2679 JUMP JUMPDEST DUP1 ISZERO PUSH2 0x79E JUMPI DUP1 PUSH1 0x1F LT PUSH2 0x773 JUMPI PUSH2 0x100 DUP1 DUP4 SLOAD DIV MUL DUP4 MSTORE SWAP2 PUSH1 0x20 ADD SWAP2 PUSH2 0x79E JUMP JUMPDEST DUP3 ADD SWAP2 SWAP1 PUSH1 0x0 MSTORE PUSH1 0x20 PUSH1 0x0 KECCAK256 SWAP1 JUMPDEST DUP2 SLOAD DUP2 MSTORE SWAP1 PUSH1 0x1 ADD SWAP1 PUSH1 0x20 ADD DUP1 DUP4 GT PUSH2 0x781 JUMPI DUP3 SWAP1 SUB PUSH1 0x1F AND DUP3 ADD SWAP2 JUMPDEST POP POP POP POP POP SWAP1 POP DUP5 JUMP JUMPDEST PUSH1 0x0 DUP2 DUP2 MSTORE PUSH1 0x7 PUSH1 0x20 MSTORE PUSH1 0x40 DUP2 KECCAK256 PUSH1 0x3 DUP2 ADD SLOAD PUSH1 0x1 PUSH1 0x1 PUSH1 0xA0 SHL SUB DUP6 DUP2 AND SWAP2 AND EQ DUP1 PUSH2 0x7E3 JUMPI POP PUSH1 0x4 DUP2 ADD SLOAD PUSH1 0x1 PUSH1 0x1 PUSH1 0xA0 SHL SUB DUP6 DUP2 AND SWAP2 AND EQ JUMPDEST DUP1 PUSH2 0x815 JUMPI POP PUSH2 0x815 PUSH32 0x12FC611A35F9099177EE7D774F3D6415455A6EA95442DC1BF1C538E01F5D61DB PUSH2 0x52D PUSH2 0xF4E JUMP JUMPDEST DUP1 PUSH2 0x835 JUMPI POP PUSH2 0x835 PUSH1 0x0 DUP1 MLOAD PUSH1 0x20 PUSH2 0x272B DUP4 CODECOPY DUP2 MLOAD SWAP2 MSTORE PUSH2 0x52D PUSH2 0xF4E JUMP JUMPDEST SWAP5 SWAP4 POP POP POP POP JUMP JUMPDEST PUSH1 0x10 PUSH1 0x20 MSTORE PUSH1 0x0 SWAP1 DUP2 MSTORE PUSH1 0x40 SWAP1 KECCAK256 DUP1 SLOAD PUSH2 0x856 SWAP1 PUSH2 0x2679 JUMP JUMPDEST DUP1 PUSH1 0x1F ADD PUSH1 0x20 DUP1 SWAP2 DIV MUL PUSH1 0x20 ADD PUSH1 0x40 MLOAD SWAP1 DUP2 ADD PUSH1 0x40 MSTORE DUP1 SWAP3 SWAP2 SWAP1 DUP2 DUP2 MSTORE PUSH1 0x20 ADD DUP3 DUP1 SLOAD PUSH2 0x882 SWAP1 PUSH2 0x2679 JUMP JUMPDEST DUP1 ISZERO PUSH2 0x8CF JUMPI DUP1 PUSH1 0x1F LT PUSH2 0x8A4 JUMPI PUSH2 0x100 DUP1 DUP4 SLOAD DIV MUL DUP4 MSTORE SWAP2 PUSH1 0x20 ADD SWAP2 PUSH2 0x8CF JUMP JUMPDEST DUP3 ADD SWAP2 SWAP1 PUSH1 0x0 MSTORE PUSH1 0x20 PUSH1 0x0 KECCAK256 SWAP1 JUMPDEST DUP2 SLOAD DUP2 MSTORE SWAP1 PUSH1 0x1 ADD SWAP1 PUSH1 0x20 ADD DUP1 DUP4 GT PUSH2 0x8B2 JUMPI DUP3 SWAP1 SUB PUSH1 0x1F AND DUP3 ADD SWAP2 JUMPDEST POP POP POP POP POP DUP2 JUMP JUMPDEST PUSH1 0x0 PUSH2 0x8E1 PUSH2 0xF4E JUMP JUMPDEST SWAP1 POP SWAP1 JUMP JUMPDEST PUSH32 0xCA77CD8F9856EF5FCD36F6B15BF469FE216C2F9114F60DD031F0A2B97B67AAA9 PUSH2 0x913 DUP2 PUSH2 0x6CD PUSH2 0xF4E JUMP JUMPDEST PUSH2 0x926 PUSH2 0x91E PUSH2 0xF4E JUMP JUMPDEST DUP6 DUP6 DUP6 PUSH2 0x10A4 JUMP JUMPDEST POP POP POP POP JUMP JUMPDEST PUSH1 0x0 DUP3 DUP2 MSTORE PUSH1 0x12 PUSH1 0x20 MSTORE PUSH1 0x40 SWAP1 KECCAK256 PUSH1 0x1 ADD SLOAD PUSH2 0x94A DUP2 PUSH2 0x6CD PUSH2 0xF4E JUMP JUMPDEST PUSH2 0x6E4 DUP4 DUP4 PUSH2 0x1196 JUMP JUMPDEST PUSH1 0x0 PUSH1 0x0 DUP1 MLOAD PUSH1 0x20 PUSH2 0x272B DUP4 CODECOPY DUP2 MLOAD SWAP2 MSTORE PUSH2 0x971 DUP2 PUSH2 0x6CD PUSH2 0xF4E JUMP JUMPDEST PUSH2 0x982 PUSH2 0x97C PUSH2 0xF4E JUMP JUMPDEST DUP5 PUSH2 0x121D JUMP JUMPDEST SWAP4 SWAP3 POP POP POP JUMP JUMPDEST PUSH2 0x991 PUSH2 0xF4E JUMP JUMPDEST PUSH1 0x1 PUSH1 0x1 PUSH1 0xA0 SHL SUB AND DUP2 PUSH1 0x1 PUSH1 0x1 PUSH1 0xA0 SHL SUB AND EQ PUSH2 0xA0E JUMPI PUSH1 0x40 MLOAD PUSH3 0x461BCD PUSH1 0xE5 SHL DUP2 MSTORE PUSH1 0x20 PUSH1 0x4 DUP3 ADD MSTORE PUSH1 0x2F PUSH1 0x24 DUP3 ADD MSTORE PUSH32 0x416363657373436F6E74726F6C3A2063616E206F6E6C792072656E6F756E6365 PUSH1 0x44 DUP3 ADD MSTORE PUSH15 0x103937B632B9903337B91039B2B633 PUSH1 0x89 SHL PUSH1 0x64 DUP3 ADD MSTORE PUSH1 0x84 ADD JUMPDEST PUSH1 0x40 MLOAD DUP1 SWAP2 SUB SWAP1 REVERT JUMPDEST PUSH2 0xA18 DUP3 DUP3 PUSH2 0x12B7 JUMP JUMPDEST POP POP JUMP JUMPDEST PUSH1 0x13 DUP1 SLOAD PUSH2 0x856 SWAP1 PUSH2 0x2679 JUMP JUMPDEST PUSH1 0x1 PUSH1 0x1 PUSH1 0xA0 SHL SUB DUP3 AND PUSH1 0x0 SWAP1 DUP2 MSTORE PUSH1 0x4 PUSH1 0x20 MSTORE PUSH1 0x40 DUP2 KECCAK256 PUSH2 0x835 PUSH1 0x2 DUP3 ADD DUP5 PUSH2 0x133C JUMP JUMPDEST PUSH1 0x0 PUSH2 0x6AC PUSH1 0x8 DUP4 PUSH2 0x133C JUMP JUMPDEST PUSH1 0x0 PUSH2 0x6AC PUSH1 0x5 DUP4 PUSH2 0x133C JUMP JUMPDEST PUSH1 0x0 DUP2 DUP2 MSTORE PUSH1 0x7 PUSH1 0x20 MSTORE PUSH1 0x40 DUP2 KECCAK256 PUSH1 0x5 DUP2 ADD DUP1 SLOAD SWAP1 DUP4 SWAP1 PUSH2 0xA8A PUSH1 0x1 DUP5 PUSH2 0x261F JUMP JUMPDEST DUP2 SLOAD DUP2 LT PUSH2 0xAA8 JUMPI PUSH4 0x4E487B71 PUSH1 0xE0 SHL PUSH1 0x0 MSTORE PUSH1 0x32 PUSH1 0x4 MSTORE PUSH1 0x24 PUSH1 0x0 REVERT JUMPDEST PUSH1 0x0 SWAP2 DUP3 MSTORE PUSH1 0x20 SWAP1 SWAP2 KECCAK256 PUSH1 0x2 SWAP1 SWAP2 MUL ADD SLOAD PUSH1 0xFF AND SWAP6 SWAP5 POP POP POP POP POP JUMP JUMPDEST PUSH1 0x0 PUSH2 0xADB PUSH2 0xAD2 PUSH2 0xF4E JUMP JUMPDEST DUP7 DUP7 DUP7 DUP7 PUSH2 0x1374 JUMP JUMPDEST SWAP6 SWAP5 POP POP POP POP POP JUMP JUMPDEST PUSH1 0x0 PUSH2 0x6AC PUSH1 0xB DUP4 PUSH2 0x133C JUMP JUMPDEST PUSH1 0x1 PUSH1 0x1 PUSH1 0xA0 SHL SUB DUP3 AND PUSH1 0x0 SWAP1 DUP2 MSTORE PUSH1 0x4 PUSH1 0x20 DUP2 SWAP1 MSTORE PUSH1 0x40 DUP3 KECCAK256 SWAP1 PUSH2 0x835 SWAP1 DUP3 ADD DUP5 PUSH2 0x133C JUMP JUMPDEST PUSH2 0xB29 PUSH2 0xB23 PUSH2 0xF4E JUMP JUMPDEST DUP5 PUSH2 0x7A8 JUMP JUMPDEST PUSH2 0xB8C JUMPI PUSH1 0x40 MLOAD PUSH3 0x461BCD PUSH1 0xE5 SHL DUP2 MSTORE PUSH1 0x20 PUSH1 0x4 DUP3 ADD MSTORE PUSH1 0x2E PUSH1 0x24 DUP3 ADD MSTORE PUSH32 0x466163746969762E75706461746552656C6174696F6E73686970203A20706572 PUSH1 0x44 DUP3 ADD MSTORE PUSH14 0x1B5A5CDCDA5BDB8819195B9A5959 PUSH1 0x92 SHL PUSH1 0x64 DUP3 ADD MSTORE PUSH1 0x84 ADD PUSH2 0xA05 JUMP JUMPDEST PUSH2 0x6E4 PUSH2 0xB97 PUSH2 0xF4E JUMP JUMPDEST DUP5 DUP5 DUP5 PUSH2 0x16B1 JUMP JUMPDEST PUSH1 0x0 SWAP2 DUP3 MSTORE PUSH1 0x12 PUSH1 0x20 SWAP1 DUP2 MSTORE PUSH1 0x40 DUP1 DUP5 KECCAK256 PUSH1 0x1 PUSH1 0x1 PUSH1 0xA0 SHL SUB SWAP4 SWAP1 SWAP4 AND DUP5 MSTORE SWAP2 SWAP1 MSTORE SWAP1 KECCAK256 SLOAD PUSH1 0xFF AND SWAP1 JUMP JUMPDEST PUSH1 0x0 PUSH32 0xCA77CD8F9856EF5FCD36F6B15BF469FE216C2F9114F60DD031F0A2B97B67AAA9 PUSH2 0xBF9 DUP2 PUSH2 0x6CD PUSH2 0xF4E JUMP JUMPDEST PUSH2 0xADB PUSH2 0xC04 PUSH2 0xF4E JUMP JUMPDEST DUP7 DUP7 DUP7 PUSH2 0x181C JUMP JUMPDEST PUSH1 0x0 PUSH1 0x0 DUP1 MLOAD PUSH1 0x20 PUSH2 0x272B DUP4 CODECOPY DUP2 MLOAD SWAP2 MSTORE PUSH2 0xC29 DUP2 PUSH2 0x6CD PUSH2 0xF4E JUMP JUMPDEST PUSH2 0x982 PUSH2 0xC34 PUSH2 0xF4E JUMP JUMPDEST DUP5 PUSH2 0x1937 JUMP JUMPDEST PUSH1 0x0 DUP1 MLOAD PUSH1 0x20 PUSH2 0x272B DUP4 CODECOPY DUP2 MLOAD SWAP2 MSTORE PUSH2 0xC55 DUP2 PUSH2 0x6CD PUSH2 0xF4E JUMP JUMPDEST PUSH2 0x6E4 PUSH2 0xC60 PUSH2 0xF4E JUMP JUMPDEST DUP5 DUP5 PUSH2 0x19C3 JUMP JUMPDEST PUSH2 0xC78 PUSH2 0xC72 PUSH2 0xF4E JUMP JUMPDEST DUP3 PUSH2 0x7A8 JUMP JUMPDEST PUSH2 0xCFA JUMPI PUSH1 0x40 MLOAD PUSH3 0x461BCD PUSH1 0xE5 SHL DUP2 MSTORE PUSH1 0x20 PUSH1 0x4 DUP3 ADD MSTORE PUSH1 0x47 PUSH1 0x24 DUP3 ADD MSTORE PUSH32 0x466163746969762E64656C65746552656C6174696F6E73686970203A206E6F74 PUSH1 0x44 DUP3 ADD MSTORE PUSH32 0x2061207061727469636970616E742C2061726269747261746F72206F7220676F PUSH1 0x64 DUP3 ADD MSTORE PUSH7 0x766572616E6365 PUSH1 0xC8 SHL PUSH1 0x84 DUP3 ADD MSTORE PUSH1 0xA4 ADD PUSH2 0xA05 JUMP JUMPDEST PUSH1 0x0 PUSH2 0xD05 DUP3 PUSH2 0xA68 JUMP JUMPDEST PUSH1 0x4 DUP2 GT ISZERO PUSH2 0xD24 JUMPI PUSH4 0x4E487B71 PUSH1 0xE0 SHL PUSH1 0x0 MSTORE PUSH1 0x21 PUSH1 0x4 MSTORE PUSH1 0x24 PUSH1 0x0 REVERT JUMPDEST EQ PUSH2 0xD8F JUMPI PUSH1 0x40 MLOAD PUSH3 0x461BCD PUSH1 0xE5 SHL DUP2 MSTORE PUSH1 0x20 PUSH1 0x4 DUP3 ADD MSTORE PUSH1 0x35 PUSH1 0x24 DUP3 ADD MSTORE PUSH32 0x466163746969762E64656C65746552656C6174696F6E73686970203A2072656C PUSH1 0x44 DUP3 ADD MSTORE PUSH21 0x185D1A5BDB9CDA1A5C081A5CC81858D8D95C1D1959 PUSH1 0x5A SHL PUSH1 0x64 DUP3 ADD MSTORE PUSH1 0x84 ADD PUSH2 0xA05 JUMP JUMPDEST PUSH2 0xDA0 PUSH2 0xD9A PUSH2 0xF4E JUMP JUMPDEST DUP3 PUSH2 0x1A8B JUMP JUMPDEST POP JUMP JUMPDEST PUSH1 0x0 PUSH2 0x6AC PUSH1 0xE DUP4 PUSH2 0x133C JUMP JUMPDEST PUSH1 0x0 DUP3 DUP2 MSTORE PUSH1 0x12 PUSH1 0x20 MSTORE PUSH1 0x40 SWAP1 KECCAK256 PUSH1 0x1 ADD SLOAD PUSH2 0xDCE DUP2 PUSH2 0x6CD PUSH2 0xF4E JUMP JUMPDEST PUSH2 0x6E4 DUP4 DUP4 PUSH2 0x12B7 JUMP JUMPDEST PUSH1 0x7 PUSH1 0x20 MSTORE PUSH1 0x0 SWAP1 DUP2 MSTORE PUSH1 0x40 SWAP1 KECCAK256 DUP1 SLOAD PUSH1 0x1 DUP3 ADD DUP1 SLOAD SWAP2 SWAP3 SWAP2 PUSH2 0xDFA SWAP1 PUSH2 0x2679 JUMP JUMPDEST DUP1 PUSH1 0x1F ADD PUSH1 0x20 DUP1 SWAP2 DIV MUL PUSH1 0x20 ADD PUSH1 0x40 MLOAD SWAP1 DUP2 ADD PUSH1 0x40 MSTORE DUP1 SWAP3 SWAP2 SWAP1 DUP2 DUP2 MSTORE PUSH1 0x20 ADD DUP3 DUP1 SLOAD PUSH2 0xE26 SWAP1 PUSH2 0x2679 JUMP JUMPDEST DUP1 ISZERO PUSH2 0xE73 JUMPI DUP1 PUSH1 0x1F LT PUSH2 0xE48 JUMPI PUSH2 0x100 DUP1 DUP4 SLOAD DIV MUL DUP4 MSTORE SWAP2 PUSH1 0x20 ADD SWAP2 PUSH2 0xE73 JUMP JUMPDEST DUP3 ADD SWAP2 SWAP1 PUSH1 0x0 MSTORE PUSH1 0x20 PUSH1 0x0 KECCAK256 SWAP1 JUMPDEST DUP2 SLOAD DUP2 MSTORE SWAP1 PUSH1 0x1 ADD SWAP1 PUSH1 0x20 ADD DUP1 DUP4 GT PUSH2 0xE56 JUMPI DUP3 SWAP1 SUB PUSH1 0x1F AND DUP3 ADD SWAP2 JUMPDEST POP POP POP PUSH1 0x2 DUP5 ADD SLOAD PUSH1 0x3 DUP6 ADD SLOAD PUSH1 0x4 DUP7 ADD SLOAD PUSH1 0x6 SWAP1 SWAP7 ADD SLOAD SWAP5 SWAP6 SWAP2 SWAP5 PUSH1 0x1 PUSH1 0x1 PUSH1 0xA0 SHL SUB SWAP2 DUP3 AND SWAP5 POP SWAP2 DUP2 AND SWAP3 POP AND DUP7 JUMP JUMPDEST PUSH1 0x1 PUSH1 0x1 PUSH1 0xA0 SHL SUB DUP3 AND PUSH1 0x0 SWAP1 DUP2 MSTORE PUSH1 0x4 PUSH1 0x20 MSTORE PUSH1 0x40 DUP2 KECCAK256 PUSH2 0x835 DUP2 DUP5 PUSH2 0x133C JUMP JUMPDEST PUSH1 0x0 DUP1 MLOAD PUSH1 0x20 PUSH2 0x272B DUP4 CODECOPY DUP2 MLOAD SWAP2 MSTORE PUSH2 0xEE2 DUP2 PUSH2 0x6CD PUSH2 0xF4E JUMP JUMPDEST PUSH1 0x1 DUP3 SWAP1 SSTORE PUSH32 0x80E9E01C87BCBCE1C332B54FAE7AECA49677C397C9A61984AFD885163D71F4DB PUSH2 0xF10 PUSH2 0xF4E JUMP JUMPDEST PUSH1 0x40 DUP1 MLOAD PUSH1 0x1 PUSH1 0x1 PUSH1 0xA0 SHL SUB SWAP1 SWAP3 AND DUP3 MSTORE PUSH1 0x20 DUP3 ADD DUP6 SWAP1 MSTORE ADD PUSH1 0x40 MLOAD DUP1 SWAP2 SUB SWAP1 LOG1 POP POP JUMP JUMPDEST PUSH1 0xD PUSH1 0x20 MSTORE PUSH1 0x0 SWAP1 DUP2 MSTORE PUSH1 0x40 SWAP1 KECCAK256 DUP1 SLOAD PUSH2 0x856 SWAP1 PUSH2 0x2679 JUMP JUMPDEST PUSH1 0x0 PUSH1 0x14 CALLDATASIZE LT DUP1 ISZERO SWAP1 PUSH2 0xF6B JUMPI POP PUSH1 0x11 SLOAD PUSH1 0x1 PUSH1 0x1 PUSH1 0xA0 SHL SUB AND CALLER EQ JUMPDEST ISZERO PUSH2 0xF7D JUMPI POP PUSH1 0x13 NOT CALLDATASIZE ADD CALLDATALOAD PUSH1 0x60 SHR SWAP1 JUMP JUMPDEST POP CALLER SWAP1 JUMP JUMPDEST PUSH2 0xF8C DUP3 DUP3 PUSH2 0xB9F JUMP JUMPDEST PUSH2 0xA18 JUMPI PUSH2 0xFA4 DUP2 PUSH1 0x1 PUSH1 0x1 PUSH1 0xA0 SHL SUB AND PUSH1 0x14 PUSH2 0x1C1B JUMP JUMPDEST PUSH2 0xFAF DUP4 PUSH1 0x20 PUSH2 0x1C1B JUMP JUMPDEST PUSH1 0x40 MLOAD PUSH1 0x20 ADD PUSH2 0xFC0 SWAP3 SWAP2 SWAP1 PUSH2 0x246A JUMP JUMPDEST PUSH1 0x40 DUP1 MLOAD PUSH1 0x1F NOT DUP2 DUP5 SUB ADD DUP2 MSTORE SWAP1 DUP3 SWAP1 MSTORE PUSH3 0x461BCD PUSH1 0xE5 SHL DUP3 MSTORE PUSH2 0xA05 SWAP2 PUSH1 0x4 ADD PUSH2 0x25D5 JUMP JUMPDEST PUSH2 0xFF1 PUSH1 0xB DUP4 PUSH2 0x1DFD JUMP JUMPDEST PUSH2 0x103D JUMPI PUSH1 0x40 MLOAD PUSH3 0x461BCD PUSH1 0xE5 SHL DUP2 MSTORE PUSH1 0x20 PUSH1 0x4 DUP3 ADD MSTORE PUSH1 0x18 PUSH1 0x24 DUP3 ADD MSTORE PUSH32 0x756E6B6E6F776E2072656C6174696F6E73686970547970650000000000000000 PUSH1 0x44 DUP3 ADD MSTORE PUSH1 0x64 ADD PUSH2 0xA05 JUMP JUMPDEST PUSH1 0x0 DUP3 DUP2 MSTORE PUSH1 0xD PUSH1 0x20 SWAP1 DUP2 MSTORE PUSH1 0x40 SWAP1 SWAP2 KECCAK256 DUP3 MLOAD PUSH2 0x105C SWAP3 DUP5 ADD SWAP1 PUSH2 0x202D JUMP JUMPDEST POP DUP2 DUP4 PUSH1 0x1 PUSH1 0x1 PUSH1 0xA0 SHL SUB AND PUSH32 0x84121BE7EB04075AA4DA9FB0BAA0025C8B79CAE839EC2153E1E054409C4EB7C DUP4 PUSH1 0x40 MLOAD PUSH2 0x1097 SWAP2 SWAP1 PUSH2 0x25D5 JUMP JUMPDEST PUSH1 0x40 MLOAD DUP1 SWAP2 SUB SWAP1 LOG3 POP POP POP JUMP JUMPDEST PUSH2 0x10AF PUSH1 0x8 DUP4 PUSH2 0x1DFD JUMP JUMPDEST PUSH2 0x1116 JUMPI PUSH1 0x40 MLOAD PUSH3 0x461BCD PUSH1 0xE5 SHL DUP2 MSTORE PUSH1 0x20 PUSH1 0x4 DUP3 ADD MSTORE PUSH1 0x32 PUSH1 0x24 DUP3 ADD MSTORE PUSH32 0x4661637469697653746F72652E757064617465417474657374696F6E203A2075 PUSH1 0x44 DUP3 ADD MSTORE PUSH18 0x3735B737BBB71030BA3A32B9BA30BA34B7B7 PUSH1 0x71 SHL PUSH1 0x64 DUP3 ADD MSTORE PUSH1 0x84 ADD PUSH2 0xA05 JUMP JUMPDEST PUSH1 0x0 DUP3 DUP2 MSTORE PUSH1 0xA PUSH1 0x20 SWAP1 DUP2 MSTORE PUSH1 0x40 SWAP1 SWAP2 KECCAK256 DUP3 MLOAD SWAP1 SWAP2 PUSH2 0x113C SWAP2 PUSH1 0x3 DUP5 ADD SWAP2 DUP6 ADD SWAP1 PUSH2 0x202D JUMP JUMPDEST POP DUP3 DUP5 PUSH1 0x1 PUSH1 0x1 PUSH1 0xA0 SHL SUB AND DUP7 PUSH1 0x1 PUSH1 0x1 PUSH1 0xA0 SHL SUB AND PUSH32 0x862A60BEF5105D3377CAFC3C1DD1231EF47D85FEB9352F25786C11E03AF13C02 DUP5 PUSH1 0x2 ADD SLOAD DUP7 PUSH1 0x40 MLOAD PUSH2 0x1187 SWAP3 SWAP2 SWAP1 PUSH2 0x251C JUMP JUMPDEST PUSH1 0x40 MLOAD DUP1 SWAP2 SUB SWAP1 LOG4 POP POP POP POP POP JUMP JUMPDEST PUSH2 0x11A0 DUP3 DUP3 PUSH2 0xB9F JUMP JUMPDEST PUSH2 0xA18 JUMPI PUSH1 0x0 DUP3 DUP2 MSTORE PUSH1 0x12 PUSH1 0x20 SWAP1 DUP2 MSTORE PUSH1 0x40 DUP1 DUP4 KECCAK256 PUSH1 0x1 PUSH1 0x1 PUSH1 0xA0 SHL SUB DUP6 AND DUP5 MSTORE SWAP1 SWAP2 MSTORE SWAP1 KECCAK256 DUP1 SLOAD PUSH1 0xFF NOT AND PUSH1 0x1 OR SWAP1 SSTORE PUSH2 0x11D9 PUSH2 0xF4E JUMP JUMPDEST PUSH1 0x1 PUSH1 0x1 PUSH1 0xA0 SHL SUB AND DUP2 PUSH1 0x1 PUSH1 0x1 PUSH1 0xA0 SHL SUB AND DUP4 PUSH32 0x2F8788117E7EFF1D82E926EC794901D17C78024A50270940304540A733656F0D PUSH1 0x40 MLOAD PUSH1 0x40 MLOAD DUP1 SWAP2 SUB SWAP1 LOG4 POP POP JUMP JUMPDEST PUSH1 0x0 PUSH2 0x1227 PUSH2 0x1E59 JUMP JUMPDEST SWAP1 POP PUSH2 0x124F DUP2 PUSH1 0x40 MLOAD DUP1 PUSH1 0x60 ADD PUSH1 0x40 MSTORE DUP1 PUSH1 0x2F DUP2 MSTORE PUSH1 0x20 ADD PUSH2 0x26FC PUSH1 0x2F SWAP2 CODECOPY PUSH1 0xE SWAP2 SWAP1 PUSH2 0x1EB1 JUMP JUMPDEST PUSH1 0x0 DUP2 DUP2 MSTORE PUSH1 0x10 PUSH1 0x20 SWAP1 DUP2 MSTORE PUSH1 0x40 SWAP1 SWAP2 KECCAK256 DUP4 MLOAD PUSH2 0x126E SWAP3 DUP6 ADD SWAP1 PUSH2 0x202D JUMP JUMPDEST POP DUP1 DUP4 PUSH1 0x1 PUSH1 0x1 PUSH1 0xA0 SHL SUB AND PUSH32 0x552F72C71153E22A5F5CA0CA4C94C92AB22EFFEE9A714E7D1157F94E18766560 DUP5 PUSH1 0x40 MLOAD PUSH2 0x12A9 SWAP2 SWAP1 PUSH2 0x25D5 JUMP JUMPDEST PUSH1 0x40 MLOAD DUP1 SWAP2 SUB SWAP1 LOG3 SWAP3 SWAP2 POP POP JUMP JUMPDEST PUSH2 0x12C1 DUP3 DUP3 PUSH2 0xB9F JUMP JUMPDEST ISZERO PUSH2 0xA18 JUMPI PUSH1 0x0 DUP3 DUP2 MSTORE PUSH1 0x12 PUSH1 0x20 SWAP1 DUP2 MSTORE PUSH1 0x40 DUP1 DUP4 KECCAK256 PUSH1 0x1 PUSH1 0x1 PUSH1 0xA0 SHL SUB DUP6 AND DUP5 MSTORE SWAP1 SWAP2 MSTORE SWAP1 KECCAK256 DUP1 SLOAD PUSH1 0xFF NOT AND SWAP1 SSTORE PUSH2 0x12F8 PUSH2 0xF4E JUMP JUMPDEST PUSH1 0x1 PUSH1 0x1 PUSH1 0xA0 SHL SUB AND DUP2 PUSH1 0x1 PUSH1 0x1 PUSH1 0xA0 SHL SUB AND DUP4 PUSH32 0xF6391F5C32D9C69D2A47EA670B442974B53935D1EDC7FD64EB21E047A839171B PUSH1 0x40 MLOAD PUSH1 0x40 MLOAD DUP1 SWAP2 SUB SWAP1 LOG4 POP POP JUMP JUMPDEST PUSH1 0x0 DUP3 PUSH1 0x1 ADD DUP3 DUP2 SLOAD DUP2 LT PUSH2 0x1361 JUMPI PUSH4 0x4E487B71 PUSH1 0xE0 SHL PUSH1 0x0 MSTORE PUSH1 0x32 PUSH1 0x4 MSTORE PUSH1 0x24 PUSH1 0x0 REVERT JUMPDEST SWAP1 PUSH1 0x0 MSTORE PUSH1 0x20 PUSH1 0x0 KECCAK256 ADD SLOAD SWAP1 POP SWAP3 SWAP2 POP POP JUMP JUMPDEST PUSH1 0x0 PUSH2 0x1381 PUSH1 0xB DUP7 PUSH2 0x1DFD JUMP JUMPDEST PUSH2 0x13E6 JUMPI PUSH1 0x40 MLOAD PUSH3 0x461BCD PUSH1 0xE5 SHL DUP2 MSTORE PUSH1 0x20 PUSH1 0x4 DUP3 ADD MSTORE PUSH1 0x30 PUSH1 0x24 DUP3 ADD MSTORE PUSH32 0x4661637469697653746F72652E63726561746552656C6174696F6E7368697020 PUSH1 0x44 DUP3 ADD MSTORE PUSH16 0xE881D5B9ADB9BDDDB881D1E5C195259 PUSH1 0x82 SHL PUSH1 0x64 DUP3 ADD MSTORE PUSH1 0x84 ADD PUSH2 0xA05 JUMP JUMPDEST PUSH1 0x1 SLOAD DUP4 GT PUSH2 0x1456 JUMPI PUSH1 0x40 MLOAD PUSH3 0x461BCD PUSH1 0xE5 SHL DUP2 MSTORE PUSH1 0x20 PUSH1 0x4 DUP3 ADD MSTORE PUSH1 0x36 PUSH1 0x24 DUP3 ADD MSTORE PUSH32 0x4661637469697653746F72652E63726561746552656C6174696F6E7368697020 PUSH1 0x44 DUP3 ADD MSTORE PUSH22 0x3A20616D6F756E742062656C6F77206D696E696D756D PUSH1 0x50 SHL PUSH1 0x64 DUP3 ADD MSTORE PUSH1 0x84 ADD PUSH2 0xA05 JUMP JUMPDEST CALLER PUSH1 0x1 PUSH1 0x1 PUSH1 0xA0 SHL SUB DUP4 AND EQ ISZERO PUSH2 0x14C4 JUMPI PUSH1 0x40 MLOAD PUSH3 0x461BCD PUSH1 0xE5 SHL DUP2 MSTORE PUSH1 0x20 PUSH1 0x4 DUP3 ADD MSTORE PUSH1 0x2C PUSH1 0x24 DUP3 ADD MSTORE PUSH32 0x4661637469697653746F72652E63726561746552656C6174696F6E736869703A PUSH1 0x44 DUP3 ADD MSTORE PUSH12 0x103A37901E9039B2B73232B9 PUSH1 0xA1 SHL PUSH1 0x64 DUP3 ADD MSTORE PUSH1 0x84 ADD PUSH2 0xA05 JUMP JUMPDEST PUSH2 0x14CC PUSH2 0x1E59 JUMP JUMPDEST SWAP1 POP PUSH1 0x0 PUSH1 0x40 MLOAD DUP1 PUSH1 0x40 ADD PUSH1 0x40 MSTORE DUP1 PUSH1 0x0 PUSH1 0x4 DUP2 GT ISZERO PUSH2 0x14FC JUMPI PUSH4 0x4E487B71 PUSH1 0xE0 SHL PUSH1 0x0 MSTORE PUSH1 0x21 PUSH1 0x4 MSTORE PUSH1 0x24 PUSH1 0x0 REVERT JUMPDEST DUP2 MSTORE PUSH1 0x40 DUP1 MLOAD PUSH1 0x20 DUP2 DUP2 ADD DUP4 MSTORE PUSH1 0x0 DUP1 DUP4 MSTORE SWAP4 DUP2 ADD SWAP2 SWAP1 SWAP2 MSTORE DUP6 DUP4 MSTORE PUSH1 0x7 DUP2 MSTORE DUP2 DUP4 KECCAK256 PUSH1 0x1 PUSH1 0x1 PUSH1 0xA0 SHL SUB DUP1 DUP14 AND DUP1 DUP7 MSTORE PUSH1 0x4 DUP1 DUP6 MSTORE DUP6 DUP8 KECCAK256 SWAP3 DUP12 AND DUP1 DUP9 MSTORE SWAP6 DUP8 KECCAK256 DUP15 DUP6 SSTORE PUSH1 0x2 DUP1 DUP7 ADD DUP15 SWAP1 SSTORE PUSH1 0x3 DUP7 ADD DUP1 SLOAD PUSH1 0x1 PUSH1 0x1 PUSH1 0xA0 SHL SUB NOT SWAP1 DUP2 AND SWAP1 SWAP6 OR SWAP1 SSTORE DUP3 DUP7 ADD DUP1 SLOAD SWAP1 SWAP5 AND SWAP1 SWAP8 OR SWAP1 SWAP3 SSTORE PUSH1 0x5 DUP5 ADD DUP1 SLOAD PUSH1 0x1 DUP2 DUP2 ADD DUP4 SSTORE SWAP2 DUP10 MSTORE SWAP6 SWAP1 SWAP8 KECCAK256 DUP9 MLOAD SWAP6 SWAP1 SWAP7 MUL SWAP1 SWAP6 ADD DUP1 SLOAD SWAP8 SWAP9 POP SWAP3 SWAP7 SWAP2 SWAP6 SWAP1 SWAP5 DUP9 SWAP5 SWAP3 DUP5 SWAP3 PUSH1 0xFF NOT SWAP1 SWAP2 AND SWAP2 DUP5 SWAP1 DUP2 GT ISZERO PUSH2 0x15C1 JUMPI PUSH4 0x4E487B71 PUSH1 0xE0 SHL PUSH1 0x0 MSTORE PUSH1 0x21 PUSH1 0x4 MSTORE PUSH1 0x24 PUSH1 0x0 REVERT JUMPDEST MUL OR SWAP1 SSTORE POP PUSH1 0x20 DUP3 DUP2 ADD MLOAD DUP1 MLOAD PUSH2 0x15DE SWAP3 PUSH1 0x1 DUP6 ADD SWAP3 ADD SWAP1 PUSH2 0x202D JUMP JUMPDEST POP POP POP PUSH2 0x1607 DUP6 PUSH1 0x40 MLOAD DUP1 PUSH1 0x60 ADD PUSH1 0x40 MSTORE DUP1 PUSH1 0x2B DUP2 MSTORE PUSH1 0x20 ADD PUSH2 0x282E PUSH1 0x2B SWAP2 CODECOPY PUSH1 0x5 SWAP2 SWAP1 PUSH2 0x1EB1 JUMP JUMPDEST PUSH2 0x162F DUP6 PUSH1 0x40 MLOAD DUP1 PUSH1 0x60 ADD PUSH1 0x40 MSTORE DUP1 PUSH1 0x2A DUP2 MSTORE PUSH1 0x20 ADD PUSH2 0x274B PUSH1 0x2A SWAP2 CODECOPY PUSH1 0x2 DUP5 ADD SWAP2 SWAP1 PUSH2 0x1EB1 JUMP JUMPDEST PUSH2 0x1654 DUP6 PUSH1 0x40 MLOAD DUP1 PUSH1 0x60 ADD PUSH1 0x40 MSTORE DUP1 PUSH1 0x2C DUP2 MSTORE PUSH1 0x20 ADD PUSH2 0x2775 PUSH1 0x2C SWAP2 CODECOPY DUP5 SWAP2 SWAP1 PUSH2 0x1EB1 JUMP JUMPDEST DUP5 DUP7 PUSH1 0x1 PUSH1 0x1 PUSH1 0xA0 SHL SUB AND DUP12 PUSH1 0x1 PUSH1 0x1 PUSH1 0xA0 SHL SUB AND PUSH32 0xBCC29E0AD7824522560710A30F8DDD060D3AD441DD28A900808BB3B4C3B2E888 DUP13 DUP13 DUP13 PUSH1 0x40 MLOAD PUSH2 0x169C SWAP4 SWAP3 SWAP2 SWAP1 PUSH2 0x2535 JUMP JUMPDEST PUSH1 0x40 MLOAD DUP1 SWAP2 SUB SWAP1 LOG4 POP POP POP POP SWAP6 SWAP5 POP POP POP POP POP JUMP JUMPDEST PUSH1 0x0 DUP4 DUP2 MSTORE PUSH1 0x7 PUSH1 0x20 MSTORE PUSH1 0x40 SWAP1 KECCAK256 PUSH2 0x16CA PUSH1 0x5 DUP6 PUSH2 0x1DFD JUMP JUMPDEST PUSH2 0x172B JUMPI PUSH1 0x40 MLOAD PUSH3 0x461BCD PUSH1 0xE5 SHL DUP2 MSTORE PUSH1 0x20 PUSH1 0x4 DUP3 ADD MSTORE PUSH1 0x2C PUSH1 0x24 DUP3 ADD MSTORE PUSH32 0x4661637469697653746F72652E61636365707452656C6174696F6E7368697020 PUSH1 0x44 DUP3 ADD MSTORE PUSH12 0xE881D5B9ADB9BDDDB881A59 PUSH1 0xA2 SHL PUSH1 0x64 DUP3 ADD MSTORE PUSH1 0x84 ADD PUSH2 0xA05 JUMP JUMPDEST PUSH1 0x0 PUSH1 0x40 MLOAD DUP1 PUSH1 0x40 ADD PUSH1 0x40 MSTORE DUP1 DUP6 PUSH1 0x4 DUP2 GT ISZERO PUSH2 0x1758 JUMPI PUSH4 0x4E487B71 PUSH1 0xE0 SHL PUSH1 0x0 MSTORE PUSH1 0x21 PUSH1 0x4 MSTORE PUSH1 0x24 PUSH1 0x0 REVERT JUMPDEST DUP2 MSTORE PUSH1 0x20 SWAP1 DUP2 ADD DUP6 SWAP1 MSTORE PUSH1 0x5 DUP5 ADD DUP1 SLOAD PUSH1 0x1 DUP2 DUP2 ADD DUP4 SSTORE PUSH1 0x0 SWAP3 DUP4 MSTORE SWAP3 SWAP1 SWAP2 KECCAK256 DUP4 MLOAD PUSH1 0x2 SWAP1 SWAP3 MUL ADD DUP1 SLOAD SWAP4 SWAP5 POP DUP5 SWAP4 SWAP1 SWAP3 DUP4 SWAP2 PUSH1 0xFF NOT AND SWAP1 DUP4 PUSH1 0x4 DUP2 GT ISZERO PUSH2 0x17B0 JUMPI PUSH4 0x4E487B71 PUSH1 0xE0 SHL PUSH1 0x0 MSTORE PUSH1 0x21 PUSH1 0x4 MSTORE PUSH1 0x24 PUSH1 0x0 REVERT JUMPDEST MUL OR SWAP1 SSTORE POP PUSH1 0x20 DUP3 DUP2 ADD MLOAD DUP1 MLOAD PUSH2 0x17CD SWAP3 PUSH1 0x1 DUP6 ADD SWAP3 ADD SWAP1 PUSH2 0x202D JUMP JUMPDEST POP POP POP DUP5 DUP7 PUSH1 0x1 PUSH1 0x1 PUSH1 0xA0 SHL SUB AND PUSH32 0x65A96ABF7A8464886ADB3C10AD9C2EAC2C28CDA0E5A5D06A4E43E82BA1D904B5 DUP7 DUP7 PUSH1 0x40 MLOAD PUSH2 0x180C SWAP3 SWAP2 SWAP1 PUSH2 0x25B5 JUMP JUMPDEST PUSH1 0x40 MLOAD DUP1 SWAP2 SUB SWAP1 LOG3 POP POP POP POP POP POP JUMP JUMPDEST PUSH1 0x0 PUSH2 0x1826 PUSH2 0x1E59 JUMP JUMPDEST PUSH1 0x0 DUP2 DUP2 MSTORE PUSH1 0xA PUSH1 0x20 SWAP1 DUP2 MSTORE PUSH1 0x40 DUP1 DUP4 KECCAK256 PUSH1 0x1 PUSH1 0x1 PUSH1 0xA0 SHL SUB DUP1 DUP11 AND DUP1 DUP7 MSTORE PUSH1 0x4 DUP6 MSTORE SWAP3 SWAP1 SWAP5 KECCAK256 DUP2 SLOAD SWAP5 DUP12 AND PUSH1 0x1 PUSH1 0x1 PUSH1 0xA0 SHL SUB NOT SWAP6 DUP7 AND OR DUP3 SSTORE PUSH1 0x1 DUP3 ADD DUP1 SLOAD SWAP1 SWAP6 AND SWAP1 SWAP3 OR SWAP1 SWAP4 SSTORE PUSH1 0x2 DUP4 ADD DUP8 SWAP1 SSTORE DUP6 MLOAD SWAP4 SWAP5 POP SWAP2 SWAP3 PUSH2 0x1890 SWAP2 PUSH1 0x3 DUP6 ADD SWAP2 SWAP1 DUP8 ADD SWAP1 PUSH2 0x202D JUMP JUMPDEST POP PUSH2 0x18B9 DUP4 PUSH1 0x40 MLOAD DUP1 PUSH1 0x60 ADD PUSH1 0x40 MSTORE DUP1 PUSH1 0x32 DUP2 MSTORE PUSH1 0x20 ADD PUSH2 0x27A1 PUSH1 0x32 SWAP2 CODECOPY PUSH1 0x4 DUP5 ADD SWAP2 SWAP1 PUSH2 0x1EB1 JUMP JUMPDEST PUSH2 0x18DF DUP4 PUSH1 0x40 MLOAD DUP1 PUSH1 0x60 ADD PUSH1 0x40 MSTORE DUP1 PUSH1 0x2B DUP2 MSTORE PUSH1 0x20 ADD PUSH2 0x27D3 PUSH1 0x2B SWAP2 CODECOPY PUSH1 0x8 SWAP2 SWAP1 PUSH2 0x1EB1 JUMP JUMPDEST DUP3 DUP7 PUSH1 0x1 PUSH1 0x1 PUSH1 0xA0 SHL SUB AND DUP9 PUSH1 0x1 PUSH1 0x1 PUSH1 0xA0 SHL SUB AND PUSH32 0xF1D05E62D3C2E358BD9B4B996CC1C77348F8BDC6A0FB2A44ACDDA8AA10A7C72 DUP9 DUP9 PUSH1 0x40 MLOAD PUSH2 0x1925 SWAP3 SWAP2 SWAP1 PUSH2 0x251C JUMP JUMPDEST PUSH1 0x40 MLOAD DUP1 SWAP2 SUB SWAP1 LOG4 POP POP SWAP5 SWAP4 POP POP POP POP JUMP JUMPDEST PUSH1 0x0 PUSH2 0x1941 PUSH2 0x1E59 JUMP JUMPDEST SWAP1 POP PUSH2 0x1969 DUP2 PUSH1 0x40 MLOAD DUP1 PUSH1 0x60 ADD PUSH1 0x40 MSTORE DUP1 PUSH1 0x30 DUP2 MSTORE PUSH1 0x20 ADD PUSH2 0x27FE PUSH1 0x30 SWAP2 CODECOPY PUSH1 0xB SWAP2 SWAP1 PUSH2 0x1EB1 JUMP JUMPDEST PUSH1 0x0 DUP2 DUP2 MSTORE PUSH1 0xD PUSH1 0x20 SWAP1 DUP2 MSTORE PUSH1 0x40 SWAP1 SWAP2 KECCAK256 DUP4 MLOAD PUSH2 0x1988 SWAP3 DUP6 ADD SWAP1 PUSH2 0x202D JUMP JUMPDEST POP DUP1 DUP4 PUSH1 0x1 PUSH1 0x1 PUSH1 0xA0 SHL SUB AND PUSH32 0x302043E9714B4FFFDB7C6B5B0BD0A7CE1ED44E23090C5B141D07A0B7DB226E63 DUP5 PUSH1 0x40 MLOAD PUSH2 0x12A9 SWAP2 SWAP1 PUSH2 0x25D5 JUMP JUMPDEST PUSH2 0x19CE PUSH1 0xE DUP4 PUSH2 0x1DFD JUMP JUMPDEST PUSH2 0x1A31 JUMPI PUSH1 0x40 MLOAD PUSH3 0x461BCD PUSH1 0xE5 SHL DUP2 MSTORE PUSH1 0x20 PUSH1 0x4 DUP3 ADD MSTORE PUSH1 0x2E PUSH1 0x24 DUP3 ADD MSTORE PUSH32 0x4661637469767653746F72652E5F757064617465417474657374696F6E547970 PUSH1 0x44 DUP3 ADD MSTORE PUSH14 0x19480E881D5B9ADB9BDDDB881A59 PUSH1 0x92 SHL PUSH1 0x64 DUP3 ADD MSTORE PUSH1 0x84 ADD PUSH2 0xA05 JUMP JUMPDEST PUSH1 0x0 DUP3 DUP2 MSTORE PUSH1 0x10 PUSH1 0x20 SWAP1 DUP2 MSTORE PUSH1 0x40 SWAP1 SWAP2 KECCAK256 DUP3 MLOAD PUSH2 0x1A50 SWAP3 DUP5 ADD SWAP1 PUSH2 0x202D JUMP JUMPDEST POP DUP2 DUP4 PUSH1 0x1 PUSH1 0x1 PUSH1 0xA0 SHL SUB AND PUSH32 0x4DBBE29CD02F27130F9DE96FA91EA03748F6C81A9B30BEB32BE958364BF3D39A DUP4 PUSH1 0x40 MLOAD PUSH2 0x1097 SWAP2 SWAP1 PUSH2 0x25D5 JUMP JUMPDEST PUSH1 0x0 DUP2 DUP2 MSTORE PUSH1 0x7 PUSH1 0x20 DUP2 DUP2 MSTORE PUSH1 0x40 DUP1 DUP5 KECCAK256 PUSH1 0x3 DUP2 ADD SLOAD PUSH1 0x1 PUSH1 0x1 PUSH1 0xA0 SHL SUB SWAP1 DUP2 AND DUP7 MSTORE PUSH1 0x4 DUP1 DUP6 MSTORE DUP4 DUP8 KECCAK256 SWAP1 DUP4 ADD SLOAD SWAP1 SWAP2 AND DUP7 MSTORE SWAP2 DUP6 KECCAK256 DUP7 DUP7 MSTORE SWAP4 SWAP1 SWAP3 MSTORE DUP4 DUP3 SSTORE SWAP1 SWAP3 SWAP1 SWAP2 SWAP1 DUP4 SWAP1 PUSH2 0x1AE0 PUSH1 0x1 DUP4 ADD DUP3 PUSH2 0x20B1 JUMP JUMPDEST PUSH1 0x0 PUSH1 0x2 DUP4 ADD DUP2 SWAP1 SSTORE PUSH1 0x3 DUP4 ADD DUP1 SLOAD PUSH1 0x1 PUSH1 0x1 PUSH1 0xA0 SHL SUB NOT SWAP1 DUP2 AND SWAP1 SWAP2 SSTORE PUSH1 0x4 DUP5 ADD DUP1 SLOAD SWAP1 SWAP2 AND SWAP1 SSTORE PUSH2 0x1B17 SWAP1 PUSH1 0x5 DUP5 ADD SWAP1 PUSH2 0x20EB JUMP JUMPDEST POP PUSH1 0x6 ADD DUP1 SLOAD PUSH1 0x1 PUSH1 0x1 PUSH1 0xA0 SHL SUB NOT AND SWAP1 SSTORE PUSH1 0x40 DUP1 MLOAD DUP1 DUP3 ADD SWAP1 SWAP2 MSTORE PUSH1 0x17 DUP2 MSTORE PUSH23 0x1D5B9ADB9BDDDB881C995B185D1A5BDB9CDA1A5C081A59 PUSH1 0x4A SHL PUSH1 0x20 DUP3 ADD MSTORE PUSH2 0x1B65 SWAP1 PUSH1 0x5 SWAP1 DUP7 SWAP1 PUSH2 0x1F06 JUMP JUMPDEST PUSH1 0x40 DUP1 MLOAD DUP1 DUP3 ADD SWAP1 SWAP2 MSTORE PUSH1 0x17 DUP2 MSTORE PUSH23 0x1D5B9ADB9BDDDB881C995B185D1A5BDB9CDA1A5C081A59 PUSH1 0x4A SHL PUSH1 0x20 DUP3 ADD MSTORE PUSH2 0x1BA0 SWAP1 DUP4 SWAP1 DUP7 SWAP1 PUSH2 0x1F06 JUMP JUMPDEST PUSH1 0x40 DUP1 MLOAD DUP1 DUP3 ADD SWAP1 SWAP2 MSTORE PUSH1 0x17 DUP2 MSTORE PUSH23 0x1D5B9ADB9BDDDB881C995B185D1A5BDB9CDA1A5C081A59 PUSH1 0x4A SHL PUSH1 0x20 DUP3 ADD MSTORE PUSH2 0x1BDE SWAP1 PUSH1 0x2 DUP4 ADD SWAP1 DUP7 SWAP1 PUSH2 0x1F06 JUMP JUMPDEST PUSH1 0x40 MLOAD DUP5 SWAP1 PUSH1 0x1 PUSH1 0x1 PUSH1 0xA0 SHL SUB DUP8 AND SWAP1 PUSH32 0x28921F27194C5AE8F1C2C4010AAD2D87AF120B1B0E8E743EB7A3D0810B4B2141 SWAP1 PUSH1 0x0 SWAP1 LOG3 POP POP POP POP POP JUMP JUMPDEST PUSH1 0x60 PUSH1 0x0 PUSH2 0x1C2A DUP4 PUSH1 0x2 PUSH2 0x2600 JUMP JUMPDEST PUSH2 0x1C35 SWAP1 PUSH1 0x2 PUSH2 0x25E8 JUMP JUMPDEST PUSH8 0xFFFFFFFFFFFFFFFF DUP2 GT ISZERO PUSH2 0x1C5B JUMPI PUSH4 0x4E487B71 PUSH1 0xE0 SHL PUSH1 0x0 MSTORE PUSH1 0x41 PUSH1 0x4 MSTORE PUSH1 0x24 PUSH1 0x0 REVERT JUMPDEST PUSH1 0x40 MLOAD SWAP1 DUP1 DUP3 MSTORE DUP1 PUSH1 0x1F ADD PUSH1 0x1F NOT AND PUSH1 0x20 ADD DUP3 ADD PUSH1 0x40 MSTORE DUP1 ISZERO PUSH2 0x1C85 JUMPI PUSH1 0x20 DUP3 ADD DUP2 DUP1 CALLDATASIZE DUP4 CALLDATACOPY ADD SWAP1 POP JUMPDEST POP SWAP1 POP PUSH1 0x3 PUSH1 0xFC SHL DUP2 PUSH1 0x0 DUP2 MLOAD DUP2 LT PUSH2 0x1CAE JUMPI PUSH4 0x4E487B71 PUSH1 0xE0 SHL PUSH1 0x0 MSTORE PUSH1 0x32 PUSH1 0x4 MSTORE PUSH1 0x24 PUSH1 0x0 REVERT JUMPDEST PUSH1 0x20 ADD ADD SWAP1 PUSH1 0x1 PUSH1 0x1 PUSH1 0xF8 SHL SUB NOT AND SWAP1 DUP2 PUSH1 0x0 BYTE SWAP1 MSTORE8 POP PUSH1 0xF PUSH1 0xFB SHL DUP2 PUSH1 0x1 DUP2 MLOAD DUP2 LT PUSH2 0x1CEB JUMPI PUSH4 0x4E487B71 PUSH1 0xE0 SHL PUSH1 0x0 MSTORE PUSH1 0x32 PUSH1 0x4 MSTORE PUSH1 0x24 PUSH1 0x0 REVERT JUMPDEST PUSH1 0x20 ADD ADD SWAP1 PUSH1 0x1 PUSH1 0x1 PUSH1 0xF8 SHL SUB NOT AND SWAP1 DUP2 PUSH1 0x0 BYTE SWAP1 MSTORE8 POP PUSH1 0x0 PUSH2 0x1D0F DUP5 PUSH1 0x2 PUSH2 0x2600 JUMP JUMPDEST PUSH2 0x1D1A SWAP1 PUSH1 0x1 PUSH2 0x25E8 JUMP JUMPDEST SWAP1 POP JUMPDEST PUSH1 0x1 DUP2 GT ISZERO PUSH2 0x1DAE JUMPI PUSH16 0x181899199A1A9B1B9C1CB0B131B232B3 PUSH1 0x81 SHL DUP6 PUSH1 0xF AND PUSH1 0x10 DUP2 LT PUSH2 0x1D5C JUMPI PUSH4 0x4E487B71 PUSH1 0xE0 SHL PUSH1 0x0 MSTORE PUSH1 0x32 PUSH1 0x4 MSTORE PUSH1 0x24 PUSH1 0x0 REVERT JUMPDEST BYTE PUSH1 0xF8 SHL DUP3 DUP3 DUP2 MLOAD DUP2 LT PUSH2 0x1D80 JUMPI PUSH4 0x4E487B71 PUSH1 0xE0 SHL PUSH1 0x0 MSTORE PUSH1 0x32 PUSH1 0x4 MSTORE PUSH1 0x24 PUSH1 0x0 REVERT JUMPDEST PUSH1 0x20 ADD ADD SWAP1 PUSH1 0x1 PUSH1 0x1 PUSH1 0xF8 SHL SUB NOT AND SWAP1 DUP2 PUSH1 0x0 BYTE SWAP1 MSTORE8 POP PUSH1 0x4 SWAP5 SWAP1 SWAP5 SHR SWAP4 PUSH2 0x1DA7 DUP2 PUSH2 0x2662 JUMP JUMPDEST SWAP1 POP PUSH2 0x1D1D JUMP JUMPDEST POP DUP4 ISZERO PUSH2 0x982 JUMPI PUSH1 0x40 MLOAD PUSH3 0x461BCD PUSH1 0xE5 SHL DUP2 MSTORE PUSH1 0x20 PUSH1 0x4 DUP3 ADD DUP2 SWAP1 MSTORE PUSH1 0x24 DUP3 ADD MSTORE PUSH32 0x537472696E67733A20686578206C656E67746820696E73756666696369656E74 PUSH1 0x44 DUP3 ADD MSTORE PUSH1 0x64 ADD PUSH2 0xA05 JUMP JUMPDEST PUSH1 0x1 DUP3 ADD SLOAD PUSH1 0x0 SWAP1 PUSH2 0x1E11 JUMPI POP PUSH1 0x0 PUSH2 0x6AC JUMP JUMPDEST PUSH1 0x0 DUP3 DUP2 MSTORE PUSH1 0x20 DUP5 SWAP1 MSTORE PUSH1 0x40 SWAP1 KECCAK256 SLOAD PUSH1 0x1 DUP5 ADD DUP1 SLOAD DUP5 SWAP3 SWAP1 DUP2 LT PUSH2 0x1E45 JUMPI PUSH4 0x4E487B71 PUSH1 0xE0 SHL PUSH1 0x0 MSTORE PUSH1 0x32 PUSH1 0x4 MSTORE PUSH1 0x24 PUSH1 0x0 REVERT JUMPDEST SWAP1 PUSH1 0x0 MSTORE PUSH1 0x20 PUSH1 0x0 KECCAK256 ADD SLOAD EQ SWAP1 POP SWAP3 SWAP2 POP POP JUMP JUMPDEST PUSH1 0x0 DUP1 SLOAD DUP2 DUP1 PUSH2 0x1E68 DUP4 PUSH2 0x26B4 JUMP JUMPDEST SWAP1 SWAP2 SSTORE POP POP PUSH1 0x0 SLOAD PUSH1 0x40 MLOAD PUSH12 0xFFFFFFFFFFFFFFFFFFFFFFFF NOT ADDRESS PUSH1 0x60 SHL AND PUSH1 0x20 DUP3 ADD MSTORE PUSH1 0x34 DUP2 ADD SWAP2 SWAP1 SWAP2 MSTORE PUSH1 0x54 ADD PUSH1 0x40 MLOAD PUSH1 0x20 DUP2 DUP4 SUB SUB DUP2 MSTORE SWAP1 PUSH1 0x40 MSTORE DUP1 MLOAD SWAP1 PUSH1 0x20 ADD KECCAK256 SWAP1 POP SWAP1 JUMP JUMPDEST PUSH2 0x1EBB DUP4 DUP4 PUSH2 0x1DFD JUMP JUMPDEST ISZERO DUP2 SWAP1 PUSH2 0x1EDB JUMPI PUSH1 0x40 MLOAD PUSH3 0x461BCD PUSH1 0xE5 SHL DUP2 MSTORE PUSH1 0x4 ADD PUSH2 0xA05 SWAP2 SWAP1 PUSH2 0x25D5 JUMP JUMPDEST POP POP PUSH1 0x1 DUP1 DUP4 ADD DUP1 SLOAD PUSH1 0x0 DUP5 DUP2 MSTORE PUSH1 0x20 SWAP6 DUP7 MSTORE PUSH1 0x40 DUP2 KECCAK256 DUP3 SWAP1 SSTORE SWAP3 DUP2 ADD DUP3 SSTORE SWAP1 DUP3 MSTORE SWAP3 SWAP1 KECCAK256 SWAP1 SWAP2 ADD SSTORE JUMP JUMPDEST PUSH2 0x1F10 DUP4 DUP4 PUSH2 0x1DFD JUMP JUMPDEST DUP2 SWAP1 PUSH2 0x1F2F JUMPI PUSH1 0x40 MLOAD PUSH3 0x461BCD PUSH1 0xE5 SHL DUP2 MSTORE PUSH1 0x4 ADD PUSH2 0xA05 SWAP2 SWAP1 PUSH2 0x25D5 JUMP JUMPDEST POP PUSH1 0x0 PUSH1 0x1 PUSH2 0x1F3F DUP6 PUSH1 0x1 ADD SLOAD SWAP1 JUMP JUMPDEST PUSH2 0x1F49 SWAP2 SWAP1 PUSH2 0x261F JUMP JUMPDEST PUSH1 0x0 DUP5 DUP2 MSTORE PUSH1 0x20 DUP7 SWAP1 MSTORE PUSH1 0x40 SWAP1 KECCAK256 SLOAD SWAP1 SWAP2 POP DUP1 DUP3 EQ PUSH2 0x1FE0 JUMPI PUSH1 0x0 DUP6 PUSH1 0x1 ADD DUP4 DUP2 SLOAD DUP2 LT PUSH2 0x1F87 JUMPI PUSH4 0x4E487B71 PUSH1 0xE0 SHL PUSH1 0x0 MSTORE PUSH1 0x32 PUSH1 0x4 MSTORE PUSH1 0x24 PUSH1 0x0 REVERT JUMPDEST SWAP1 PUSH1 0x0 MSTORE PUSH1 0x20 PUSH1 0x0 KECCAK256 ADD SLOAD SWAP1 POP DUP2 DUP7 PUSH1 0x0 ADD PUSH1 0x0 DUP4 DUP2 MSTORE PUSH1 0x20 ADD SWAP1 DUP2 MSTORE PUSH1 0x20 ADD PUSH1 0x0 KECCAK256 DUP2 SWAP1 SSTORE POP DUP1 DUP7 PUSH1 0x1 ADD DUP4 DUP2 SLOAD DUP2 LT PUSH2 0x1FD2 JUMPI PUSH4 0x4E487B71 PUSH1 0xE0 SHL PUSH1 0x0 MSTORE PUSH1 0x32 PUSH1 0x4 MSTORE PUSH1 0x24 PUSH1 0x0 REVERT JUMPDEST PUSH1 0x0 SWAP2 DUP3 MSTORE PUSH1 0x20 SWAP1 SWAP2 KECCAK256 ADD SSTORE POP JUMPDEST PUSH1 0x0 DUP5 DUP2 MSTORE PUSH1 0x20 DUP7 SWAP1 MSTORE PUSH1 0x40 DUP2 KECCAK256 SSTORE PUSH1 0x1 DUP6 ADD DUP1 SLOAD DUP1 PUSH2 0x2010 JUMPI PUSH4 0x4E487B71 PUSH1 0xE0 SHL PUSH1 0x0 MSTORE PUSH1 0x31 PUSH1 0x4 MSTORE PUSH1 0x24 PUSH1 0x0 REVERT JUMPDEST PUSH1 0x1 SWAP1 SUB DUP2 DUP2 SWAP1 PUSH1 0x0 MSTORE PUSH1 0x20 PUSH1 0x0 KECCAK256 ADD PUSH1 0x0 SWAP1 SSTORE SWAP1 SSTORE POP POP POP POP POP JUMP JUMPDEST DUP3 DUP1 SLOAD PUSH2 0x2039 SWAP1 PUSH2 0x2679 JUMP JUMPDEST SWAP1 PUSH1 0x0 MSTORE PUSH1 0x20 PUSH1 0x0 KECCAK256 SWAP1 PUSH1 0x1F ADD PUSH1 0x20 SWAP1 DIV DUP2 ADD SWAP3 DUP3 PUSH2 0x205B JUMPI PUSH1 0x0 DUP6 SSTORE PUSH2 0x20A1 JUMP JUMPDEST DUP3 PUSH1 0x1F LT PUSH2 0x2074 JUMPI DUP1 MLOAD PUSH1 0xFF NOT AND DUP4 DUP1 ADD OR DUP6 SSTORE PUSH2 0x20A1 JUMP JUMPDEST DUP3 DUP1 ADD PUSH1 0x1 ADD DUP6 SSTORE DUP3 ISZERO PUSH2 0x20A1 JUMPI SWAP2 DUP3 ADD JUMPDEST DUP3 DUP2 GT ISZERO PUSH2 0x20A1 JUMPI DUP3 MLOAD DUP3 SSTORE SWAP2 PUSH1 0x20 ADD SWAP2 SWAP1 PUSH1 0x1 ADD SWAP1 PUSH2 0x2086 JUMP JUMPDEST POP PUSH2 0x20AD SWAP3 SWAP2 POP PUSH2 0x210C JUMP JUMPDEST POP SWAP1 JUMP JUMPDEST POP DUP1 SLOAD PUSH2 0x20BD SWAP1 PUSH2 0x2679 JUMP JUMPDEST PUSH1 0x0 DUP3 SSTORE DUP1 PUSH1 0x1F LT PUSH2 0x20CD JUMPI POP POP JUMP JUMPDEST PUSH1 0x1F ADD PUSH1 0x20 SWAP1 DIV SWAP1 PUSH1 0x0 MSTORE PUSH1 0x20 PUSH1 0x0 KECCAK256 SWAP1 DUP2 ADD SWAP1 PUSH2 0xDA0 SWAP2 SWAP1 PUSH2 0x210C JUMP JUMPDEST POP DUP1 SLOAD PUSH1 0x0 DUP3 SSTORE PUSH1 0x2 MUL SWAP1 PUSH1 0x0 MSTORE PUSH1 0x20 PUSH1 0x0 KECCAK256 SWAP1 DUP2 ADD SWAP1 PUSH2 0xDA0 SWAP2 SWAP1 PUSH2 0x2121 JUMP JUMPDEST JUMPDEST DUP1 DUP3 GT ISZERO PUSH2 0x20AD JUMPI PUSH1 0x0 DUP2 SSTORE PUSH1 0x1 ADD PUSH2 0x210D JUMP JUMPDEST DUP1 DUP3 GT ISZERO PUSH2 0x20AD JUMPI DUP1 SLOAD PUSH1 0xFF NOT AND DUP2 SSTORE PUSH1 0x0 PUSH2 0x2140 PUSH1 0x1 DUP4 ADD DUP3 PUSH2 0x20B1 JUMP JUMPDEST POP PUSH1 0x2 ADD PUSH2 0x2121 JUMP JUMPDEST DUP1 CALLDATALOAD PUSH1 0x1 PUSH1 0x1 PUSH1 0xA0 SHL SUB DUP2 AND DUP2 EQ PUSH2 0x2160 JUMPI PUSH1 0x0 DUP1 REVERT JUMPDEST SWAP2 SWAP1 POP JUMP JUMPDEST PUSH1 0x0 DUP3 PUSH1 0x1F DUP4 ADD SLT PUSH2 0x2175 JUMPI DUP1 DUP2 REVERT JUMPDEST DUP2 CALLDATALOAD PUSH8 0xFFFFFFFFFFFFFFFF DUP1 DUP3 GT ISZERO PUSH2 0x2190 JUMPI PUSH2 0x2190 PUSH2 0x26E5 JUMP JUMPDEST PUSH1 0x40 MLOAD PUSH1 0x1F DUP4 ADD PUSH1 0x1F NOT SWAP1 DUP2 AND PUSH1 0x3F ADD AND DUP2 ADD SWAP1 DUP3 DUP3 GT DUP2 DUP4 LT OR ISZERO PUSH2 0x21B8 JUMPI PUSH2 0x21B8 PUSH2 0x26E5 JUMP JUMPDEST DUP2 PUSH1 0x40 MSTORE DUP4 DUP2 MSTORE DUP7 PUSH1 0x20 DUP6 DUP9 ADD ADD GT ISZERO PUSH2 0x21D0 JUMPI DUP5 DUP6 REVERT JUMPDEST DUP4 PUSH1 0x20 DUP8 ADD PUSH1 0x20 DUP4 ADD CALLDATACOPY SWAP3 DUP4 ADD PUSH1 0x20 ADD SWAP4 SWAP1 SWAP4 MSTORE POP SWAP4 SWAP3 POP POP POP JUMP JUMPDEST PUSH1 0x0 PUSH1 0x20 DUP3 DUP5 SUB SLT ISZERO PUSH2 0x21FD JUMPI DUP1 DUP2 REVERT JUMPDEST PUSH2 0x982 DUP3 PUSH2 0x2149 JUMP JUMPDEST PUSH1 0x0 DUP1 PUSH1 0x40 DUP4 DUP6 SUB SLT ISZERO PUSH2 0x2218 JUMPI DUP1 DUP2 REVERT JUMPDEST PUSH2 0x2221 DUP4 PUSH2 0x2149 JUMP JUMPDEST SWAP5 PUSH1 0x20 SWAP4 SWAP1 SWAP4 ADD CALLDATALOAD SWAP4 POP POP POP JUMP JUMPDEST PUSH1 0x0 DUP1 PUSH1 0x0 PUSH1 0x60 DUP5 DUP7 SUB SLT ISZERO PUSH2 0x2243 JUMPI DUP1 DUP2 REVERT JUMPDEST PUSH2 0x224C DUP5 PUSH2 0x2149 JUMP JUMPDEST SWAP3 POP PUSH1 0x20 DUP5 ADD CALLDATALOAD SWAP2 POP PUSH1 0x40 DUP5 ADD CALLDATALOAD PUSH8 0xFFFFFFFFFFFFFFFF DUP2 GT ISZERO PUSH2 0x226E JUMPI DUP2 DUP3 REVERT JUMPDEST PUSH2 0x227A DUP7 DUP3 DUP8 ADD PUSH2 0x2165 JUMP JUMPDEST SWAP2 POP POP SWAP3 POP SWAP3 POP SWAP3 JUMP JUMPDEST PUSH1 0x0 DUP1 PUSH1 0x40 DUP4 DUP6 SUB SLT ISZERO PUSH2 0x2218 JUMPI DUP2 DUP3 REVERT JUMPDEST PUSH1 0x0 PUSH1 0x20 DUP3 DUP5 SUB SLT ISZERO PUSH2 0x22A7 JUMPI DUP1 DUP2 REVERT JUMPDEST POP CALLDATALOAD SWAP2 SWAP1 POP JUMP JUMPDEST PUSH1 0x0 DUP1 PUSH1 0x40 DUP4 DUP6 SUB SLT ISZERO PUSH2 0x22C0 JUMPI DUP2 DUP3 REVERT JUMPDEST DUP3 CALLDATALOAD SWAP2 POP PUSH2 0x22D0 PUSH1 0x20 DUP5 ADD PUSH2 0x2149 JUMP JUMPDEST SWAP1 POP SWAP3 POP SWAP3 SWAP1 POP JUMP JUMPDEST PUSH1 0x0 DUP1 PUSH1 0x0 PUSH1 0x60 DUP5 DUP7 SUB SLT ISZERO PUSH2 0x22ED JUMPI DUP3 DUP4 REVERT JUMPDEST DUP4 CALLDATALOAD SWAP3 POP PUSH1 0x20 DUP5 ADD CALLDATALOAD PUSH1 0x5 DUP2 LT PUSH2 0x2302 JUMPI DUP3 DUP4 REVERT JUMPDEST SWAP2 POP PUSH1 0x40 DUP5 ADD CALLDATALOAD PUSH8 0xFFFFFFFFFFFFFFFF DUP2 GT ISZERO PUSH2 0x226E JUMPI DUP2 DUP3 REVERT JUMPDEST PUSH1 0x0 DUP1 PUSH1 0x40 DUP4 DUP6 SUB SLT ISZERO PUSH2 0x232F JUMPI DUP2 DUP3 REVERT JUMPDEST DUP3 CALLDATALOAD SWAP2 POP PUSH1 0x20 DUP4 ADD CALLDATALOAD PUSH8 0xFFFFFFFFFFFFFFFF DUP2 GT ISZERO PUSH2 0x234C JUMPI DUP2 DUP3 REVERT JUMPDEST PUSH2 0x2358 DUP6 DUP3 DUP7 ADD PUSH2 0x2165 JUMP JUMPDEST SWAP2 POP POP SWAP3 POP SWAP3 SWAP1 POP JUMP JUMPDEST PUSH1 0x0 DUP1 PUSH1 0x0 DUP1 PUSH1 0x80 DUP6 DUP8 SUB SLT ISZERO PUSH2 0x2377 JUMPI DUP1 DUP2 REVERT JUMPDEST DUP5 CALLDATALOAD SWAP4 POP PUSH1 0x20 DUP6 ADD CALLDATALOAD PUSH8 0xFFFFFFFFFFFFFFFF DUP2 GT ISZERO PUSH2 0x2394 JUMPI DUP2 DUP3 REVERT JUMPDEST PUSH2 0x23A0 DUP8 DUP3 DUP9 ADD PUSH2 0x2165 JUMP JUMPDEST SWAP4 POP POP PUSH1 0x40 DUP6 ADD CALLDATALOAD SWAP2 POP PUSH2 0x23B6 PUSH1 0x60 DUP7 ADD PUSH2 0x2149 JUMP JUMPDEST SWAP1 POP SWAP3 SWAP6 SWAP2 SWAP5 POP SWAP3 POP JUMP JUMPDEST PUSH1 0x0 PUSH1 0x20 DUP3 DUP5 SUB SLT ISZERO PUSH2 0x23D2 JUMPI DUP1 DUP2 REVERT JUMPDEST DUP2 CALLDATALOAD PUSH1 0x1 PUSH1 0x1 PUSH1 0xE0 SHL SUB NOT DUP2 AND DUP2 EQ PUSH2 0x982 JUMPI DUP2 DUP3 REVERT JUMPDEST PUSH1 0x0 PUSH1 0x20 DUP3 DUP5 SUB SLT ISZERO PUSH2 0x23FA JUMPI DUP1 DUP2 REVERT JUMPDEST DUP2 CALLDATALOAD PUSH8 0xFFFFFFFFFFFFFFFF DUP2 GT ISZERO PUSH2 0x2410 JUMPI DUP2 DUP3 REVERT JUMPDEST PUSH2 0x835 DUP5 DUP3 DUP6 ADD PUSH2 0x2165 JUMP JUMPDEST PUSH1 0x5 DUP2 LT PUSH2 0x243A JUMPI PUSH4 0x4E487B71 PUSH1 0xE0 SHL PUSH1 0x0 MSTORE PUSH1 0x21 PUSH1 0x4 MSTORE PUSH1 0x24 PUSH1 0x0 REVERT JUMPDEST SWAP1 MSTORE JUMP JUMPDEST PUSH1 0x0 DUP2 MLOAD DUP1 DUP5 MSTORE PUSH2 0x2456 DUP2 PUSH1 0x20 DUP7 ADD PUSH1 0x20 DUP7 ADD PUSH2 0x2636 JUMP JUMPDEST PUSH1 0x1F ADD PUSH1 0x1F NOT AND SWAP3 SWAP1 SWAP3 ADD PUSH1 0x20 ADD SWAP3 SWAP2 POP POP JUMP JUMPDEST PUSH32 0x416363657373436F6E74726F6C3A206163636F756E7420000000000000000000 DUP2 MSTORE PUSH1 0x0 DUP4 MLOAD PUSH2 0x24A2 DUP2 PUSH1 0x17 DUP6 ADD PUSH1 0x20 DUP9 ADD PUSH2 0x2636 JUMP JUMPDEST PUSH17 0x1034B99036B4B9B9B4B733903937B6329 PUSH1 0x7D SHL PUSH1 0x17 SWAP2 DUP5 ADD SWAP2 DUP3 ADD MSTORE DUP4 MLOAD PUSH2 0x24D3 DUP2 PUSH1 0x28 DUP5 ADD PUSH1 0x20 DUP9 ADD PUSH2 0x2636 JUMP JUMPDEST ADD PUSH1 0x28 ADD SWAP5 SWAP4 POP POP POP POP JUMP JUMPDEST PUSH1 0x1 PUSH1 0x1 PUSH1 0xA0 SHL SUB DUP6 DUP2 AND DUP3 MSTORE DUP5 AND PUSH1 0x20 DUP3 ADD MSTORE PUSH1 0x40 DUP2 ADD DUP4 SWAP1 MSTORE PUSH1 0x80 PUSH1 0x60 DUP3 ADD DUP2 SWAP1 MSTORE PUSH1 0x0 SWAP1 PUSH2 0x2512 SWAP1 DUP4 ADD DUP5 PUSH2 0x243E JUMP JUMPDEST SWAP7 SWAP6 POP POP POP POP POP POP JUMP JUMPDEST DUP3 DUP2 MSTORE PUSH1 0x40 PUSH1 0x20 DUP3 ADD MSTORE PUSH1 0x0 PUSH2 0x835 PUSH1 0x40 DUP4 ADD DUP5 PUSH2 0x243E JUMP JUMPDEST DUP4 DUP2 MSTORE PUSH1 0x60 PUSH1 0x20 DUP3 ADD MSTORE PUSH1 0x0 PUSH2 0x254E PUSH1 0x60 DUP4 ADD DUP6 PUSH2 0x243E JUMP JUMPDEST SWAP1 POP DUP3 PUSH1 0x40 DUP4 ADD MSTORE SWAP5 SWAP4 POP POP POP POP JUMP JUMPDEST DUP7 DUP2 MSTORE PUSH1 0xC0 PUSH1 0x20 DUP3 ADD MSTORE PUSH1 0x0 PUSH2 0x2577 PUSH1 0xC0 DUP4 ADD DUP9 PUSH2 0x243E JUMP JUMPDEST PUSH1 0x40 DUP4 ADD SWAP7 SWAP1 SWAP7 MSTORE POP PUSH1 0x1 PUSH1 0x1 PUSH1 0xA0 SHL SUB SWAP4 DUP5 AND PUSH1 0x60 DUP3 ADD MSTORE SWAP2 DUP4 AND PUSH1 0x80 DUP4 ADD MSTORE SWAP1 SWAP2 AND PUSH1 0xA0 SWAP1 SWAP2 ADD MSTORE SWAP3 SWAP2 POP POP JUMP JUMPDEST PUSH1 0x20 DUP2 ADD PUSH2 0x6AC DUP3 DUP5 PUSH2 0x241C JUMP JUMPDEST PUSH2 0x25BF DUP2 DUP5 PUSH2 0x241C JUMP JUMPDEST PUSH1 0x40 PUSH1 0x20 DUP3 ADD MSTORE PUSH1 0x0 PUSH2 0x835 PUSH1 0x40 DUP4 ADD DUP5 PUSH2 0x243E JUMP JUMPDEST PUSH1 0x20 DUP2 MSTORE PUSH1 0x0 PUSH2 0x982 PUSH1 0x20 DUP4 ADD DUP5 PUSH2 0x243E JUMP JUMPDEST PUSH1 0x0 DUP3 NOT DUP3 GT ISZERO PUSH2 0x25FB JUMPI PUSH2 0x25FB PUSH2 0x26CF JUMP JUMPDEST POP ADD SWAP1 JUMP JUMPDEST PUSH1 0x0 DUP2 PUSH1 0x0 NOT DIV DUP4 GT DUP3 ISZERO ISZERO AND ISZERO PUSH2 0x261A JUMPI PUSH2 0x261A PUSH2 0x26CF JUMP JUMPDEST POP MUL SWAP1 JUMP JUMPDEST PUSH1 0x0 DUP3 DUP3 LT ISZERO PUSH2 0x2631 JUMPI PUSH2 0x2631 PUSH2 0x26CF JUMP JUMPDEST POP SUB SWAP1 JUMP JUMPDEST PUSH1 0x0 JUMPDEST DUP4 DUP2 LT ISZERO PUSH2 0x2651 JUMPI DUP2 DUP2 ADD MLOAD DUP4 DUP3 ADD MSTORE PUSH1 0x20 ADD PUSH2 0x2639 JUMP JUMPDEST DUP4 DUP2 GT ISZERO PUSH2 0x926 JUMPI POP POP PUSH1 0x0 SWAP2 ADD MSTORE JUMP JUMPDEST PUSH1 0x0 DUP2 PUSH2 0x2671 JUMPI PUSH2 0x2671 PUSH2 0x26CF JUMP JUMPDEST POP PUSH1 0x0 NOT ADD SWAP1 JUMP JUMPDEST PUSH1 0x1 DUP2 DUP2 SHR SWAP1 DUP3 AND DUP1 PUSH2 0x268D JUMPI PUSH1 0x7F DUP3 AND SWAP2 POP JUMPDEST PUSH1 0x20 DUP3 LT DUP2 EQ ISZERO PUSH2 0x26AE JUMPI PUSH4 0x4E487B71 PUSH1 0xE0 SHL PUSH1 0x0 MSTORE PUSH1 0x22 PUSH1 0x4 MSTORE PUSH1 0x24 PUSH1 0x0 REVERT JUMPDEST POP SWAP2 SWAP1 POP JUMP JUMPDEST PUSH1 0x0 PUSH1 0x0 NOT DUP3 EQ ISZERO PUSH2 0x26C8 JUMPI PUSH2 0x26C8 PUSH2 0x26CF JUMP JUMPDEST POP PUSH1 0x1 ADD SWAP1 JUMP JUMPDEST PUSH4 0x4E487B71 PUSH1 0xE0 SHL PUSH1 0x0 MSTORE PUSH1 0x11 PUSH1 0x4 MSTORE PUSH1 0x24 PUSH1 0x0 REVERT JUMPDEST PUSH4 0x4E487B71 PUSH1 0xE0 SHL PUSH1 0x0 MSTORE PUSH1 0x41 PUSH1 0x4 MSTORE PUSH1 0x24 PUSH1 0x0 REVERT INVALID CHAINID PUSH2 0x6374 PUSH10 0x697653746F72652E5F63 PUSH19 0x656174654174746573746174696F6E54797065 KECCAK256 GASPRICE KECCAK256 PUSH10 0x64206578697374737184 0xD 0xC4 SWAP1 PUSH4 0x52362B0C 0xDA 0xF7 SWAP9 PUSH17 0x196C8E42ACAFADE72D5D5A6D59291253CE 0xB1 CHAINID PUSH2 0x6374 PUSH10 0x697653746F72652E6372 PUSH6 0x61746552656C PUSH2 0x7469 PUSH16 0x6E73686970203A203530302028746F29 CHAINID PUSH2 0x6374 PUSH10 0x697653746F72652E6372 PUSH6 0x61746552656C PUSH2 0x7469 PUSH16 0x6E73686970203A20353030202866726F PUSH14 0x294661637469697653746F72652E 0x5F PUSH4 0x72656174 PUSH6 0x417474657374 PUSH2 0x7469 PUSH16 0x6E203A20696420657869737473202875 PUSH20 0x6572294661637469697653746F72652E5F637265 PUSH2 0x7465 COINBASE PUSH21 0x746573746174696F6E203A20696420657869737473 CHAINID PUSH2 0x6374 PUSH10 0x697653746F72652E5F63 PUSH19 0x6561746552656C6174696F6E73686970547970 PUSH6 0x203A20696420 PUSH6 0x786973747346 PUSH2 0x6374 PUSH10 0x697653746F72652E6372 PUSH6 0x61746552656C PUSH2 0x7469 PUSH16 0x6E73686970203A206964206578697374 PUSH20 0xA2646970667358221220470081E574378121F136 MOD 0xAA 0xE3 0xF PUSH28 0x7C16BDF2CF75FF28C197861F98B5BCF92464736F6C63430008040033 "
		},
		"gasEstimates": {
			"creation": {
				"codeDepositCost": "2076400",
				"executionCost": "infinite",
				"totalCost": "infinite"
			},
			"external": {
				"ARBITRATOR_ROLE()": "262",
				"ATTESTOR_ROLE()": "262",
				"DEFAULT_ADMIN_ROLE()": "306",
				"GOVERNANCE_ROLE()": "infinite",
				"arbitrationDelete(bytes32)": "infinite",
				"attestation(bytes32)": "infinite",
				"attestationAtIndex(uint256)": "2140",
				"attestationCount()": "1081",
				"attestationTypeAtIndex(uint256)": "2139",
				"attestationTypeCount()": "1147",
				"attestationTypeDesc(bytes32)": "infinite",
				"canUpdateRelationship(address,bytes32)": "infinite",
				"createAttestation(address,bytes32,string)": "infinite",
				"createAttestationType(string)": "infinite",
				"createRelationship(bytes32,string,uint256,address)": "infinite",
				"createRelationshipType(string)": "infinite",
				"deleteRelationship(bytes32)": "infinite",
				"getCurrentAccount()": "1228",
				"getRoleAdmin(bytes32)": "1279",
				"grantRole(bytes32,address)": "infinite",
				"hasRole(bytes32,address)": "1488",
				"isTrustedForwarder(address)": "1315",
				"minimumAmount()": "1084",
				"nonce()": "1062",
				"relationship(bytes32)": "infinite",
				"relationshipAtIndex(uint256)": "2073",
				"relationshipCount()": "1038",
				"relationshipStage(bytes32)": "3124",
				"relationshipTypeCount()": "1125",
				"relationshipTypeDesc(bytes32)": "infinite",
				"relationshipTypeIdAtIndex(uint256)": "2074",
				"renounceRole(bytes32,address)": "infinite",
				"revokeRole(bytes32,address)": "infinite",
				"setMinimumAmount(uint256)": "infinite",
				"supportsInterface(bytes4)": "473",
				"trustedForwarder()": "1142",
				"updateAttestation(address,bytes32,string)": "infinite",
				"updateAttestationType(bytes32,string)": "infinite",
				"updateRelationship(bytes32,uint8,string)": "infinite",
				"updateRelationshipType(bytes32,string)": "infinite",
				"userAttestationAtIndex(address,uint256)": "2326",
				"userMeta(address)": "2980",
				"userReceiveRelationshipAtIndex(address,uint256)": "2317",
				"userSendRelationshipAtIndex(address,uint256)": "2309",
				"versionRecipient()": "infinite"
			},
			"internal": {
				"genUid()": "infinite"
			}
		},
		"methodIdentifiers": {
			"ARBITRATOR_ROLE()": "9cea0787",
			"ATTESTOR_ROLE()": "62723644",
			"DEFAULT_ADMIN_ROLE()": "a217fddf",
			"GOVERNANCE_ROLE()": "f36c8f5c",
			"arbitrationDelete(bytes32)": "eda1d212",
			"attestation(bytes32)": "1a7fca86",
			"attestationAtIndex(uint256)": "52c0fa26",
			"attestationCount()": "a15b9321",
			"attestationTypeAtIndex(uint256)": "c1dd76ea",
			"attestationTypeCount()": "dfbc55a3",
			"attestationTypeDesc(bytes32)": "24fd9493",
			"canUpdateRelationship(address,bytes32)": "1af41fc2",
			"createAttestation(address,bytes32,string)": "98d41fbd",
			"createAttestationType(string)": "30e3d0a0",
			"createRelationship(bytes32,string,uint256,address)": "805a0db8",
			"createRelationshipType(string)": "a29dc1a0",
			"deleteRelationship(bytes32)": "a96cfb6b",
			"getCurrentAccount()": "25da9b00",
			"getRoleAdmin(bytes32)": "248a9ca3",
			"grantRole(bytes32,address)": "2f2ff15d",
			"hasRole(bytes32,address)": "91d14854",
			"isTrustedForwarder(address)": "572b6c05",
			"minimumAmount()": "bb0c8298",
			"nonce()": "affed0e0",
			"relationship(bytes32)": "e9159708",
			"relationshipAtIndex(uint256)": "60929cff",
			"relationshipCount()": "40f329ca",
			"relationshipStage(bytes32)": "6287ffd5",
			"relationshipTypeCount()": "7e8bbbac",
			"relationshipTypeDesc(bytes32)": "fa0f722c",
			"relationshipTypeIdAtIndex(uint256)": "849b7a59",
			"renounceRole(bytes32,address)": "36568abe",
			"revokeRole(bytes32,address)": "d547741f",
			"setMinimumAmount(uint256)": "eeb4a9c8",
			"supportsInterface(bytes4)": "01ffc9a7",
			"trustedForwarder()": "7da0a877",
			"updateAttestation(address,bytes32,string)": "2cb62004",
			"updateAttestationType(bytes32,string)": "a54e3a73",
			"updateRelationship(bytes32,uint8,string)": "88f2e95f",
			"updateRelationshipType(bytes32,string)": "190c4269",
			"userAttestationAtIndex(address,uint256)": "865e658e",
			"userMeta(address)": "85b45f55",
			"userReceiveRelationshipAtIndex(address,uint256)": "4c555183",
			"userSendRelationshipAtIndex(address,uint256)": "ee6bb518",
			"versionRecipient()": "486ff0cd"
		}
	},
	"abi": [
		{
			"inputs": [
				{
					"internalType": "address",
					"name": "root",
					"type": "address"
				},
				{
					"internalType": "address",
					"name": "forwarder",
					"type": "address"
				}
			],
			"stateMutability": "nonpayable",
			"type": "constructor"
		},
		{
			"anonymous": false,
			"inputs": [
				{
					"indexed": true,
					"internalType": "address",
					"name": "from",
					"type": "address"
				},
				{
					"indexed": true,
					"internalType": "bytes32",
					"name": "id",
					"type": "bytes32"
				}
			],
			"name": "DeleteRelationship",
			"type": "event"
		},
		{
			"anonymous": false,
			"inputs": [
				{
					"indexed": true,
					"internalType": "address",
					"name": "signer",
					"type": "address"
				},
				{
					"indexed": true,
					"internalType": "address",
					"name": "user",
					"type": "address"
				},
				{
					"indexed": true,
					"internalType": "bytes32",
					"name": "id",
					"type": "bytes32"
				},
				{
					"indexed": false,
					"internalType": "bytes32",
					"name": "typeId",
					"type": "bytes32"
				},
				{
					"indexed": false,
					"internalType": "string",
					"name": "payload",
					"type": "string"
				}
			],
			"name": "NewAttestation",
			"type": "event"
		},
		{
			"anonymous": false,
			"inputs": [
				{
					"indexed": true,
					"internalType": "address",
					"name": "sender",
					"type": "address"
				},
				{
					"indexed": true,
					"internalType": "bytes32",
					"name": "id",
					"type": "bytes32"
				},
				{
					"indexed": false,
					"internalType": "string",
					"name": "description",
					"type": "string"
				}
			],
			"name": "NewAttestationType",
			"type": "event"
		},
		{
			"anonymous": false,
			"inputs": [
				{
					"indexed": true,
					"internalType": "address",
					"name": "from",
					"type": "address"
				},
				{
					"indexed": true,
					"internalType": "address",
					"name": "to",
					"type": "address"
				},
				{
					"indexed": true,
					"internalType": "bytes32",
					"name": "id",
					"type": "bytes32"
				},
				{
					"indexed": false,
					"internalType": "bytes32",
					"name": "typeId",
					"type": "bytes32"
				},
				{
					"indexed": false,
					"internalType": "string",
					"name": "desc",
					"type": "string"
				},
				{
					"indexed": false,
					"internalType": "uint256",
					"name": "amount",
					"type": "uint256"
				}
			],
			"name": "NewRelationship",
			"type": "event"
		},
		{
			"anonymous": false,
			"inputs": [
				{
					"indexed": true,
					"internalType": "address",
					"name": "sender",
					"type": "address"
				},
				{
					"indexed": true,
					"internalType": "bytes32",
					"name": "id",
					"type": "bytes32"
				},
				{
					"indexed": false,
					"internalType": "string",
					"name": "description",
					"type": "string"
				}
			],
			"name": "NewRelationshipType",
			"type": "event"
		},
		{
			"anonymous": false,
			"inputs": [
				{
					"indexed": true,
					"internalType": "bytes32",
					"name": "role",
					"type": "bytes32"
				},
				{
					"indexed": true,
					"internalType": "bytes32",
					"name": "previousAdminRole",
					"type": "bytes32"
				},
				{
					"indexed": true,
					"internalType": "bytes32",
					"name": "newAdminRole",
					"type": "bytes32"
				}
			],
			"name": "RoleAdminChanged",
			"type": "event"
		},
		{
			"anonymous": false,
			"inputs": [
				{
					"indexed": true,
					"internalType": "bytes32",
					"name": "role",
					"type": "bytes32"
				},
				{
					"indexed": true,
					"internalType": "address",
					"name": "account",
					"type": "address"
				},
				{
					"indexed": true,
					"internalType": "address",
					"name": "sender",
					"type": "address"
				}
			],
			"name": "RoleGranted",
			"type": "event"
		},
		{
			"anonymous": false,
			"inputs": [
				{
					"indexed": true,
					"internalType": "bytes32",
					"name": "role",
					"type": "bytes32"
				},
				{
					"indexed": true,
					"internalType": "address",
					"name": "account",
					"type": "address"
				},
				{
					"indexed": true,
					"internalType": "address",
					"name": "sender",
					"type": "address"
				}
			],
			"name": "RoleRevoked",
			"type": "event"
		},
		{
			"anonymous": false,
			"inputs": [
				{
					"indexed": false,
					"internalType": "address",
					"name": "sender",
					"type": "address"
				},
				{
					"indexed": false,
					"internalType": "uint256",
					"name": "minimumAmount",
					"type": "uint256"
				}
			],
			"name": "SetMinimum",
			"type": "event"
		},
		{
			"anonymous": false,
			"inputs": [
				{
					"indexed": true,
					"internalType": "address",
					"name": "signer",
					"type": "address"
				},
				{
					"indexed": true,
					"internalType": "address",
					"name": "user",
					"type": "address"
				},
				{
					"indexed": true,
					"internalType": "bytes32",
					"name": "id",
					"type": "bytes32"
				},
				{
					"indexed": false,
					"internalType": "bytes32",
					"name": "typeId",
					"type": "bytes32"
				},
				{
					"indexed": false,
					"internalType": "string",
					"name": "payload",
					"type": "string"
				}
			],
			"name": "UpdateAttestation",
			"type": "event"
		},
		{
			"anonymous": false,
			"inputs": [
				{
					"indexed": true,
					"internalType": "address",
					"name": "sender",
					"type": "address"
				},
				{
					"indexed": true,
					"internalType": "bytes32",
					"name": "id",
					"type": "bytes32"
				},
				{
					"indexed": false,
					"internalType": "string",
					"name": "desc",
					"type": "string"
				}
			],
			"name": "UpdateAttestionType",
			"type": "event"
		},
		{
			"anonymous": false,
			"inputs": [
				{
					"indexed": true,
					"internalType": "address",
					"name": "from",
					"type": "address"
				},
				{
					"indexed": true,
					"internalType": "bytes32",
					"name": "id",
					"type": "bytes32"
				},
				{
					"indexed": false,
					"internalType": "enum FactiivStore.Lifecycle",
					"name": "lifecycle",
					"type": "uint8"
				},
				{
					"indexed": false,
					"internalType": "string",
					"name": "metadata",
					"type": "string"
				}
			],
			"name": "UpdateRelationship",
			"type": "event"
		},
		{
			"anonymous": false,
			"inputs": [
				{
					"indexed": true,
					"internalType": "address",
					"name": "sender",
					"type": "address"
				},
				{
					"indexed": true,
					"internalType": "bytes32",
					"name": "id",
					"type": "bytes32"
				},
				{
					"indexed": false,
					"internalType": "string",
					"name": "desc",
					"type": "string"
				}
			],
			"name": "UpdateRelationshipType",
			"type": "event"
		},
		{
			"inputs": [],
			"name": "ARBITRATOR_ROLE",
			"outputs": [
				{
					"internalType": "bytes32",
					"name": "",
					"type": "bytes32"
				}
			],
			"stateMutability": "view",
			"type": "function"
		},
		{
			"inputs": [],
			"name": "ATTESTOR_ROLE",
			"outputs": [
				{
					"internalType": "bytes32",
					"name": "",
					"type": "bytes32"
				}
			],
			"stateMutability": "view",
			"type": "function"
		},
		{
			"inputs": [],
			"name": "DEFAULT_ADMIN_ROLE",
			"outputs": [
				{
					"internalType": "bytes32",
					"name": "",
					"type": "bytes32"
				}
			],
			"stateMutability": "view",
			"type": "function"
		},
		{
			"inputs": [],
			"name": "GOVERNANCE_ROLE",
			"outputs": [
				{
					"internalType": "bytes32",
					"name": "",
					"type": "bytes32"
				}
			],
			"stateMutability": "view",
			"type": "function"
		},
		{
			"inputs": [
				{
					"internalType": "bytes32",
					"name": "id",
					"type": "bytes32"
				}
			],
			"name": "arbitrationDelete",
			"outputs": [],
			"stateMutability": "nonpayable",
			"type": "function"
		},
		{
			"inputs": [
				{
					"internalType": "bytes32",
					"name": "",
					"type": "bytes32"
				}
			],
			"name": "attestation",
			"outputs": [
				{
					"internalType": "address",
					"name": "signer",
					"type": "address"
				},
				{
					"internalType": "address",
					"name": "user",
					"type": "address"
				},
				{
					"internalType": "bytes32",
					"name": "typeId",
					"type": "bytes32"
				},
				{
					"internalType": "string",
					"name": "payload",
					"type": "string"
				}
			],
			"stateMutability": "view",
			"type": "function"
		},
		{
			"inputs": [
				{
					"internalType": "uint256",
					"name": "row",
					"type": "uint256"
				}
			],
			"name": "attestationAtIndex",
			"outputs": [
				{
					"internalType": "bytes32",
					"name": "id",
					"type": "bytes32"
				}
			],
			"stateMutability": "view",
			"type": "function"
		},
		{
			"inputs": [],
			"name": "attestationCount",
			"outputs": [
				{
					"internalType": "uint256",
					"name": "count",
					"type": "uint256"
				}
			],
			"stateMutability": "view",
			"type": "function"
		},
		{
			"inputs": [
				{
					"internalType": "uint256",
					"name": "row",
					"type": "uint256"
				}
			],
			"name": "attestationTypeAtIndex",
			"outputs": [
				{
					"internalType": "bytes32",
					"name": "id",
					"type": "bytes32"
				}
			],
			"stateMutability": "view",
			"type": "function"
		},
		{
			"inputs": [],
			"name": "attestationTypeCount",
			"outputs": [
				{
					"internalType": "uint256",
					"name": "count",
					"type": "uint256"
				}
			],
			"stateMutability": "view",
			"type": "function"
		},
		{
			"inputs": [
				{
					"internalType": "bytes32",
					"name": "",
					"type": "bytes32"
				}
			],
			"name": "attestationTypeDesc",
			"outputs": [
				{
					"internalType": "string",
					"name": "",
					"type": "string"
				}
			],
			"stateMutability": "view",
			"type": "function"
		},
		{
			"inputs": [
				{
					"internalType": "address",
					"name": "updater",
					"type": "address"
				},
				{
					"internalType": "bytes32",
					"name": "id",
					"type": "bytes32"
				}
			],
			"name": "canUpdateRelationship",
			"outputs": [
				{
					"internalType": "bool",
					"name": "",
					"type": "bool"
				}
			],
			"stateMutability": "view",
			"type": "function"
		},
		{
			"inputs": [
				{
					"internalType": "address",
					"name": "subject",
					"type": "address"
				},
				{
					"internalType": "bytes32",
					"name": "typeId",
					"type": "bytes32"
				},
				{
					"internalType": "string",
					"name": "payload",
					"type": "string"
				}
			],
			"name": "createAttestation",
			"outputs": [
				{
					"internalType": "bytes32",
					"name": "id",
					"type": "bytes32"
				}
			],
			"stateMutability": "nonpayable",
			"type": "function"
		},
		{
			"inputs": [
				{
					"internalType": "string",
					"name": "desc",
					"type": "string"
				}
			],
			"name": "createAttestationType",
			"outputs": [
				{
					"internalType": "bytes32",
					"name": "id",
					"type": "bytes32"
				}
			],
			"stateMutability": "nonpayable",
			"type": "function"
		},
		{
			"inputs": [
				{
					"internalType": "bytes32",
					"name": "typeId",
					"type": "bytes32"
				},
				{
					"internalType": "string",
					"name": "desc",
					"type": "string"
				},
				{
					"internalType": "uint256",
					"name": "amount",
					"type": "uint256"
				},
				{
					"internalType": "address",
					"name": "to",
					"type": "address"
				}
			],
			"name": "createRelationship",
			"outputs": [
				{
					"internalType": "bytes32",
					"name": "id",
					"type": "bytes32"
				}
			],
			"stateMutability": "nonpayable",
			"type": "function"
		},
		{
			"inputs": [
				{
					"internalType": "string",
					"name": "desc",
					"type": "string"
				}
			],
			"name": "createRelationshipType",
			"outputs": [
				{
					"internalType": "bytes32",
					"name": "id",
					"type": "bytes32"
				}
			],
			"stateMutability": "nonpayable",
			"type": "function"
		},
		{
			"inputs": [
				{
					"internalType": "bytes32",
					"name": "id",
					"type": "bytes32"
				}
			],
			"name": "deleteRelationship",
			"outputs": [],
			"stateMutability": "nonpayable",
			"type": "function"
		},
		{
			"inputs": [],
			"name": "getCurrentAccount",
			"outputs": [
				{
					"internalType": "address",
					"name": "",
					"type": "address"
				}
			],
			"stateMutability": "view",
			"type": "function"
		},
		{
			"inputs": [
				{
					"internalType": "bytes32",
					"name": "role",
					"type": "bytes32"
				}
			],
			"name": "getRoleAdmin",
			"outputs": [
				{
					"internalType": "bytes32",
					"name": "",
					"type": "bytes32"
				}
			],
			"stateMutability": "view",
			"type": "function"
		},
		{
			"inputs": [
				{
					"internalType": "bytes32",
					"name": "role",
					"type": "bytes32"
				},
				{
					"internalType": "address",
					"name": "account",
					"type": "address"
				}
			],
			"name": "grantRole",
			"outputs": [],
			"stateMutability": "nonpayable",
			"type": "function"
		},
		{
			"inputs": [
				{
					"internalType": "bytes32",
					"name": "role",
					"type": "bytes32"
				},
				{
					"internalType": "address",
					"name": "account",
					"type": "address"
				}
			],
			"name": "hasRole",
			"outputs": [
				{
					"internalType": "bool",
					"name": "",
					"type": "bool"
				}
			],
			"stateMutability": "view",
			"type": "function"
		},
		{
			"inputs": [
				{
					"internalType": "address",
					"name": "forwarder",
					"type": "address"
				}
			],
			"name": "isTrustedForwarder",
			"outputs": [
				{
					"internalType": "bool",
					"name": "",
					"type": "bool"
				}
			],
			"stateMutability": "view",
			"type": "function"
		},
		{
			"inputs": [],
			"name": "minimumAmount",
			"outputs": [
				{
					"internalType": "uint256",
					"name": "",
					"type": "uint256"
				}
			],
			"stateMutability": "view",
			"type": "function"
		},
		{
			"inputs": [],
			"name": "nonce",
			"outputs": [
				{
					"internalType": "uint256",
					"name": "",
					"type": "uint256"
				}
			],
			"stateMutability": "view",
			"type": "function"
		},
		{
			"inputs": [
				{
					"internalType": "bytes32",
					"name": "",
					"type": "bytes32"
				}
			],
			"name": "relationship",
			"outputs": [
				{
					"internalType": "bytes32",
					"name": "typeId",
					"type": "bytes32"
				},
				{
					"internalType": "string",
					"name": "description",
					"type": "string"
				},
				{
					"internalType": "uint256",
					"name": "amount",
					"type": "uint256"
				},
				{
					"internalType": "address",
					"name": "from",
					"type": "address"
				},
				{
					"internalType": "address",
					"name": "to",
					"type": "address"
				},
				{
					"internalType": "address",
					"name": "arbitrator",
					"type": "address"
				}
			],
			"stateMutability": "view",
			"type": "function"
		},
		{
			"inputs": [
				{
					"internalType": "uint256",
					"name": "row",
					"type": "uint256"
				}
			],
			"name": "relationshipAtIndex",
			"outputs": [
				{
					"internalType": "bytes32",
					"name": "id",
					"type": "bytes32"
				}
			],
			"stateMutability": "view",
			"type": "function"
		},
		{
			"inputs": [],
			"name": "relationshipCount",
			"outputs": [
				{
					"internalType": "uint256",
					"name": "count",
					"type": "uint256"
				}
			],
			"stateMutability": "view",
			"type": "function"
		},
		{
			"inputs": [
				{
					"internalType": "bytes32",
					"name": "id",
					"type": "bytes32"
				}
			],
			"name": "relationshipStage",
			"outputs": [
				{
					"internalType": "enum FactiivStore.Lifecycle",
					"name": "lifecycle",
					"type": "uint8"
				}
			],
			"stateMutability": "view",
			"type": "function"
		},
		{
			"inputs": [],
			"name": "relationshipTypeCount",
			"outputs": [
				{
					"internalType": "uint256",
					"name": "count",
					"type": "uint256"
				}
			],
			"stateMutability": "view",
			"type": "function"
		},
		{
			"inputs": [
				{
					"internalType": "bytes32",
					"name": "",
					"type": "bytes32"
				}
			],
			"name": "relationshipTypeDesc",
			"outputs": [
				{
					"internalType": "string",
					"name": "",
					"type": "string"
				}
			],
			"stateMutability": "view",
			"type": "function"
		},
		{
			"inputs": [
				{
					"internalType": "uint256",
					"name": "row",
					"type": "uint256"
				}
			],
			"name": "relationshipTypeIdAtIndex",
			"outputs": [
				{
					"internalType": "bytes32",
					"name": "id",
					"type": "bytes32"
				}
			],
			"stateMutability": "view",
			"type": "function"
		},
		{
			"inputs": [
				{
					"internalType": "bytes32",
					"name": "role",
					"type": "bytes32"
				},
				{
					"internalType": "address",
					"name": "account",
					"type": "address"
				}
			],
			"name": "renounceRole",
			"outputs": [],
			"stateMutability": "nonpayable",
			"type": "function"
		},
		{
			"inputs": [
				{
					"internalType": "bytes32",
					"name": "role",
					"type": "bytes32"
				},
				{
					"internalType": "address",
					"name": "account",
					"type": "address"
				}
			],
			"name": "revokeRole",
			"outputs": [],
			"stateMutability": "nonpayable",
			"type": "function"
		},
		{
			"inputs": [
				{
					"internalType": "uint256",
					"name": "minimum",
					"type": "uint256"
				}
			],
			"name": "setMinimumAmount",
			"outputs": [],
			"stateMutability": "nonpayable",
			"type": "function"
		},
		{
			"inputs": [
				{
					"internalType": "bytes4",
					"name": "interfaceId",
					"type": "bytes4"
				}
			],
			"name": "supportsInterface",
			"outputs": [
				{
					"internalType": "bool",
					"name": "",
					"type": "bool"
				}
			],
			"stateMutability": "view",
			"type": "function"
		},
		{
			"inputs": [],
			"name": "trustedForwarder",
			"outputs": [
				{
					"internalType": "address",
					"name": "",
					"type": "address"
				}
			],
			"stateMutability": "view",
			"type": "function"
		},
		{
			"inputs": [
				{
					"internalType": "address",
					"name": "subject",
					"type": "address"
				},
				{
					"internalType": "bytes32",
					"name": "id",
					"type": "bytes32"
				},
				{
					"internalType": "string",
					"name": "payload",
					"type": "string"
				}
			],
			"name": "updateAttestation",
			"outputs": [],
			"stateMutability": "nonpayable",
			"type": "function"
		},
		{
			"inputs": [
				{
					"internalType": "bytes32",
					"name": "id",
					"type": "bytes32"
				},
				{
					"internalType": "string",
					"name": "desc",
					"type": "string"
				}
			],
			"name": "updateAttestationType",
			"outputs": [],
			"stateMutability": "nonpayable",
			"type": "function"
		},
		{
			"inputs": [
				{
					"internalType": "bytes32",
					"name": "id",
					"type": "bytes32"
				},
				{
					"internalType": "enum FactiivStore.Lifecycle",
					"name": "lifecycle",
					"type": "uint8"
				},
				{
					"internalType": "string",
					"name": "metadata",
					"type": "string"
				}
			],
			"name": "updateRelationship",
			"outputs": [],
			"stateMutability": "nonpayable",
			"type": "function"
		},
		{
			"inputs": [
				{
					"internalType": "bytes32",
					"name": "id",
					"type": "bytes32"
				},
				{
					"internalType": "string",
					"name": "desc",
					"type": "string"
				}
			],
			"name": "updateRelationshipType",
			"outputs": [],
			"stateMutability": "nonpayable",
			"type": "function"
		},
		{
			"inputs": [
				{
					"internalType": "address",
					"name": "userAddr",
					"type": "address"
				},
				{
					"internalType": "uint256",
					"name": "row",
					"type": "uint256"
				}
			],
			"name": "userAttestationAtIndex",
			"outputs": [
				{
					"internalType": "bytes32",
					"name": "id",
					"type": "bytes32"
				}
			],
			"stateMutability": "view",
			"type": "function"
		},
		{
			"inputs": [
				{
					"internalType": "address",
					"name": "userAddr",
					"type": "address"
				}
			],
			"name": "userMeta",
			"outputs": [
				{
					"internalType": "uint256",
					"name": "linksOut",
					"type": "uint256"
				},
				{
					"internalType": "uint256",
					"name": "linksIn",
					"type": "uint256"
				},
				{
					"internalType": "uint256",
					"name": "attestations",
					"type": "uint256"
				}
			],
			"stateMutability": "view",
			"type": "function"
		},
		{
			"inputs": [
				{
					"internalType": "address",
					"name": "userAddr",
					"type": "address"
				},
				{
					"internalType": "uint256",
					"name": "row",
					"type": "uint256"
				}
			],
			"name": "userReceiveRelationshipAtIndex",
			"outputs": [
				{
					"internalType": "bytes32",
					"name": "id",
					"type": "bytes32"
				}
			],
			"stateMutability": "view",
			"type": "function"
		},
		{
			"inputs": [
				{
					"internalType": "address",
					"name": "userAddr",
					"type": "address"
				},
				{
					"internalType": "uint256",
					"name": "row",
					"type": "uint256"
				}
			],
			"name": "userSendRelationshipAtIndex",
			"outputs": [
				{
					"internalType": "bytes32",
					"name": "id",
					"type": "bytes32"
				}
			],
			"stateMutability": "view",
			"type": "function"
		},
		{
			"inputs": [],
			"name": "versionRecipient",
			"outputs": [
				{
					"internalType": "string",
					"name": "",
					"type": "string"
				}
			],
			"stateMutability": "view",
			"type": "function"
		}
	]
}